{
  "contracts/Stake.sol": {
    "Stake": {
      "abi": [
        {
          "inputs": [
            {
              "internalType": "address",
              "name": "_addr",
              "type": "address"
            }
          ],
          "stateMutability": "nonpayable",
          "type": "constructor"
        },
        {
          "anonymous": false,
          "inputs": [
            {
              "indexed": true,
              "internalType": "address",
              "name": "previousOwner",
              "type": "address"
            },
            {
              "indexed": true,
              "internalType": "address",
              "name": "newOwner",
              "type": "address"
            }
          ],
          "name": "OwnershipTransferred",
          "type": "event"
        },
        {
          "anonymous": false,
          "inputs": [
            {
              "indexed": false,
              "internalType": "address",
              "name": "",
              "type": "address"
            },
            {
              "indexed": false,
              "internalType": "uint256",
              "name": "",
              "type": "uint256"
            }
          ],
          "name": "StakeEvent",
          "type": "event"
        },
        {
          "anonymous": false,
          "inputs": [
            {
              "indexed": false,
              "internalType": "address",
              "name": "",
              "type": "address"
            },
            {
              "indexed": false,
              "internalType": "uint256",
              "name": "",
              "type": "uint256"
            }
          ],
          "name": "WithdrawEvent",
          "type": "event"
        },
        {
          "inputs": [
            {
              "internalType": "bytes32",
              "name": "c__0x47172d1f",
              "type": "bytes32"
            }
          ],
          "name": "c_0x47172d1f",
          "outputs": [],
          "stateMutability": "pure",
          "type": "function"
        },
        {
          "inputs": [],
          "name": "collectFee",
          "outputs": [],
          "stateMutability": "nonpayable",
          "type": "function"
        },
        {
          "inputs": [],
          "name": "owner",
          "outputs": [
            {
              "internalType": "address",
              "name": "",
              "type": "address"
            }
          ],
          "stateMutability": "view",
          "type": "function"
        },
        {
          "inputs": [],
          "name": "renounceOwnership",
          "outputs": [],
          "stateMutability": "nonpayable",
          "type": "function"
        },
        {
          "inputs": [
            {
              "internalType": "address",
              "name": "_addr",
              "type": "address"
            }
          ],
          "name": "setTreasury",
          "outputs": [],
          "stateMutability": "nonpayable",
          "type": "function"
        },
        {
          "inputs": [
            {
              "internalType": "uint256",
              "name": "_amount",
              "type": "uint256"
            }
          ],
          "name": "stake",
          "outputs": [],
          "stateMutability": "nonpayable",
          "type": "function"
        },
        {
          "inputs": [],
          "name": "totalFee",
          "outputs": [
            {
              "internalType": "uint256",
              "name": "",
              "type": "uint256"
            }
          ],
          "stateMutability": "view",
          "type": "function"
        },
        {
          "inputs": [
            {
              "internalType": "address",
              "name": "newOwner",
              "type": "address"
            }
          ],
          "name": "transferOwnership",
          "outputs": [],
          "stateMutability": "nonpayable",
          "type": "function"
        },
        {
          "inputs": [],
          "name": "treasury",
          "outputs": [
            {
              "internalType": "address",
              "name": "",
              "type": "address"
            }
          ],
          "stateMutability": "view",
          "type": "function"
        },
        {
          "inputs": [
            {
              "internalType": "uint256",
              "name": "_amount",
              "type": "uint256"
            }
          ],
          "name": "withdraw",
          "outputs": [],
          "stateMutability": "nonpayable",
          "type": "function"
        }
      ],
      "evm": {
        "bytecode": {
          "linkReferences": {},
          "object": "60806040523480156200001157600080fd5b5060405162001a9038038062001a90833981810160405281019062000037919062000221565b620000576200004b6200013b60201b60201c565b6200014360201b60201c565b6200008b7fee51821fb08f06eaec0b13d3bcb56848ce555d3dda13c9a77277b6c6d6fa6e1d60001b6200020760201b60201c565b620000bf7fe9827e468dff0fcfa1bdb2dcd4e23d4adb76a73d2524cb4a11bd39f040fbcd7360001b6200020760201b60201c565b620000f37fa3660f82f95c5b797c4c8d32b605ffc6bac73bffba24dc5c780a2aab1d41b91860001b6200020760201b60201c565b80600160006101000a81548173ffffffffffffffffffffffffffffffffffffffff021916908373ffffffffffffffffffffffffffffffffffffffff160217905550506200029b565b600033905090565b60008060009054906101000a900473ffffffffffffffffffffffffffffffffffffffff169050816000806101000a81548173ffffffffffffffffffffffffffffffffffffffff021916908373ffffffffffffffffffffffffffffffffffffffff1602179055508173ffffffffffffffffffffffffffffffffffffffff168173ffffffffffffffffffffffffffffffffffffffff167f8be0079c531659141344cd1fd0a4f28419497f9722a3daafe3b4186f6b6457e060405160405180910390a35050565b50565b6000815190506200021b8162000281565b92915050565b6000602082840312156200023457600080fd5b600062000244848285016200020a565b91505092915050565b60006200025a8262000261565b9050919050565b600073ffffffffffffffffffffffffffffffffffffffff82169050919050565b6200028c816200024d565b81146200029857600080fd5b50565b6117e580620002ab6000396000f3fe608060405234801561001057600080fd5b506004361061009e5760003560e01c8063a694fc3a11610066578063a694fc3a14610123578063d4d5d32a1461013f578063d9f693a114610149578063f0f4426014610165578063f2fde38b146101815761009e565b80631df4ccfc146100a35780632e1a7d4d146100c157806361d027b3146100dd578063715018a6146100fb5780638da5cb5b14610105575b600080fd5b6100ab61019d565b6040516100b89190611449565b60405180910390f35b6100db60048036038101906100d69190611238565b6101a3565b005b6100e561068a565b6040516100f2919061132e565b60405180910390f35b6101036106b0565b005b61010d610738565b60405161011a919061132e565b60405180910390f35b61013d60048036038101906101389190611238565b610761565b005b610147610b68565b005b610163600480360381019061015e919061120f565b610d3e565b005b61017f600480360381019061017a91906111bd565b610d41565b005b61019b600480360381019061019691906111bd565b610fa5565b005b60055481565b6101cf7f23d83f960d43ed63675866b08081cdd5f7e5391a96a624b5f69717d16c2b1ca360001b610d3e565b6101fb7faa7fd2b8cbb1b4dcb5ed97297d3c44eaf4e74feb5a04754e832e7d7f0a90da9560001b610d3e565b6102277fb923d378c9c75b21c98aac5ea4df43ade02330c929745102b14ec8a0576571e760001b610d3e565b6102537ff6e86880bb41eeff3a8143d02e7ff8e13f80e1def662b9390e617183c75e097f60001b610d3e565b600260003373ffffffffffffffffffffffffffffffffffffffff1673ffffffffffffffffffffffffffffffffffffffff168152602001908152602001600020548111156102d5576040517f08c379a00000000000000000000000000000000000000000000000000000000081526004016102cc906113e9565b60405180910390fd5b6103017f5bf0e97c916f870142c85ad89ac8a9a36fdc045fcbc9192da0968232c804c3cd60001b610d3e565b61032d7f8672d46b315005a101625c306647ebdbdbd142186c1cbcf03da6aa98168c5f7560001b610d3e565b6103597fc4285315530d7ae46e2e74714923b941058d386ede2c877b4f45cbd424d1bd5c60001b610d3e565b6103857f9100f3ddd123ca9d6d5ab3bc719278f6dc683a5747c81b71a9bebda8e83f8b9b60001b610d3e565b611c20600360003373ffffffffffffffffffffffffffffffffffffffff1673ffffffffffffffffffffffffffffffffffffffff16815260200190815260200160002054426103d39190611556565b1015610414576040517f08c379a000000000000000000000000000000000000000000000000000000000815260040161040b90611409565b60405180910390fd5b6104407fb02663e93e626c249e14a1cc30622834644f9667c117473d401b655d4d02621460001b610d3e565b61046c7f5de0a758e374c0c52dcb172d23e725e60a61d593d554e8002a5b39aed4b1960a60001b610d3e565b6104987f754707468ed437bb5aafa7ad706a4f4c42d568d49a54a145d3ca89cc7e8c2fb160001b610d3e565b80600260003373ffffffffffffffffffffffffffffffffffffffff1673ffffffffffffffffffffffffffffffffffffffff16815260200190815260200160002060008282546104e79190611556565b9250508190555061051a7f4a46d5c3018fad0c333c80d41de6cceb8cd70e92cc167efe7752a58b6fc8afd260001b610d3e565b6105467fd46082c3a4dbe86155cc9ed86b4d71217cc6161bb979f66c58ce0f7dfcac554760001b610d3e565b600160009054906101000a900473ffffffffffffffffffffffffffffffffffffffff1673ffffffffffffffffffffffffffffffffffffffff1663a9059cbb33836040518363ffffffff1660e01b81526004016105a3929190611380565b602060405180830381600087803b1580156105bd57600080fd5b505af11580156105d1573d6000803e3d6000fd5b505050506040513d601f19601f820116820180604052508101906105f591906111e6565b506106227f16429420558821d5a3137afc7bfee3c33e0797181d12470cabd7a05589bdaeaa60001b610d3e565b61064e7fd97776b1b97b02db840ffed0a2c26f6180a37c9add3eefbc24baa4132040360060001b610d3e565b7f5dba113b49cfa7c90315e8e604e6b506f7abcb909b01dcb19ec39005086e68fc338260405161067f929190611380565b60405180910390a150565b600460009054906101000a900473ffffffffffffffffffffffffffffffffffffffff1681565b6106b861109d565b73ffffffffffffffffffffffffffffffffffffffff166106d6610738565b73ffffffffffffffffffffffffffffffffffffffff161461072c576040517f08c379a000000000000000000000000000000000000000000000000000000000815260040161072390611429565b60405180910390fd5b61073660006110a5565b565b60008060009054906101000a900473ffffffffffffffffffffffffffffffffffffffff16905090565b61078d7fd471517ab783f9a1bcc5d793aa4325eff2c6eb52fef62a02a0d6e9bf835dcb5760001b610d3e565b6107b97f7b2d2d1687edacd27e9d1593acd4e89d15c790272198afc9999365eecfce9b4b60001b610d3e565b6107e57fa08eb4af85089e832650e1ee89502afbdb064cb05503e688e163d9f69e2eb6c260001b610d3e565b60006103e86002836107f791906114fc565b61080191906114cb565b905061082f7f233c1a7740b7d18929c9c5836ab364e300d4551cb05992162af434a8ce86eec060001b610d3e565b61085b7f50bf91c24f46be4f3a8d51a0b2addf63454d29d6c208fe57d70dda6f5472d90660001b610d3e565b806005600082825461086d9190611475565b925050819055506108a07f06377bd3f7902c61ad8f46d7e9fbfd9315b7db7cea1ea17804b3592b55aeea8c60001b610d3e565b6108cc7f2d39dcb8679ee4fbd113811ba9f626710554db4457cb66ff7809d16ab9a38e9360001b610d3e565b42600360003373ffffffffffffffffffffffffffffffffffffffff1673ffffffffffffffffffffffffffffffffffffffff1681526020019081526020016000208190555061093c7f6fe1b3d9fded505425a70413ef3415091dc401f93c94fc8c1819a1bb9da0211c60001b610d3e565b6109687f2f6f9b8e06100eb23b39b74f8f95be2aa73340913575494eb8cc1cc3634ba4a560001b610d3e565b80826109749190611556565b600260003373ffffffffffffffffffffffffffffffffffffffff1673ffffffffffffffffffffffffffffffffffffffff16815260200190815260200160002060008282546109c29190611475565b925050819055506109f57fe8a83e53b424a6d437346cb054567dbcb5569750be561eb673b4fa1b3267b6d060001b610d3e565b610a217f33a0a09d85a6baddcea720dc133d9e4deaadfd5e5a50b7645936c3154c7d7ac060001b610d3e565b600160009054906101000a900473ffffffffffffffffffffffffffffffffffffffff1673ffffffffffffffffffffffffffffffffffffffff166323b872dd3330856040518463ffffffff1660e01b8152600401610a8093929190611349565b602060405180830381600087803b158015610a9a57600080fd5b505af1158015610aae573d6000803e3d6000fd5b505050506040513d601f19601f82011682018060405250810190610ad291906111e6565b50610aff7fa7957c6005a6885a019336b2bf64c2c68eedbfe9035b20e4768153798d56265c60001b610d3e565b610b2b7f72bb212b0f7d898221529cd90aa143c2ad8483776b37e272f5fc6f381281c63c60001b610d3e565b7fb58845b0a64f92dd8d1ba04f905319d6be2021b57783b3d10155e7e36a84e1283383604051610b5c929190611380565b60405180910390a15050565b610b7061109d565b73ffffffffffffffffffffffffffffffffffffffff16610b8e610738565b73ffffffffffffffffffffffffffffffffffffffff1614610be4576040517f08c379a0000000000000000000000000000000000000000000000000000000008152600401610bdb90611429565b60405180910390fd5b610c107f2b30f971d93193e7ec44378cfc25e32bbf62c7fae810649795ee59109dbc90cf60001b610d3e565b610c3c7fa01de16b901264c5ed851f7029000320346a43eb796ced7a2607aacfa0fc6e9660001b610d3e565b610c687fc0a27b29067c81be0945dfed33cfa36608d848a040381e0f115e02f8bda9c66160001b610d3e565b600160009054906101000a900473ffffffffffffffffffffffffffffffffffffffff1673ffffffffffffffffffffffffffffffffffffffff1663a9059cbb600460009054906101000a900473ffffffffffffffffffffffffffffffffffffffff166005546040518363ffffffff1660e01b8152600401610ce9929190611380565b602060405180830381600087803b158015610d0357600080fd5b505af1158015610d17573d6000803e3d6000fd5b505050506040513d601f19601f82011682018060405250810190610d3b91906111e6565b50565b50565b610d4961109d565b73ffffffffffffffffffffffffffffffffffffffff16610d67610738565b73ffffffffffffffffffffffffffffffffffffffff1614610dbd576040517f08c379a0000000000000000000000000000000000000000000000000000000008152600401610db490611429565b60405180910390fd5b610de97fa67157f2abf0c7a326930397be4b61f61516c42735f36ef02980ad0e7f4d7af460001b610d3e565b610e157f8ab288e800f11d729d240843c656378573e55629a619371dc07c38f33e9a142b60001b610d3e565b610e417f637a24ff3562b2db39293880f6385f0de441e91a68c39f90bfc0edb2477cac4760001b610d3e565b610e6d7fd1f431d1bbce0e98ab0b7ddd38d43e669de71112b861ec733dbb625a150dd0d460001b610d3e565b600073ffffffffffffffffffffffffffffffffffffffff168173ffffffffffffffffffffffffffffffffffffffff161415610edd576040517f08c379a0000000000000000000000000000000000000000000000000000000008152600401610ed4906113c9565b60405180910390fd5b610f097f830022a9251757f5993636aa4922ab2605b08e7567bfe345cf33c7603e73eb1760001b610d3e565b610f357f4f05b0dacab3e3435443ac808dc4356bc5b4c97ab405d38b2ab7fc0d24e782af60001b610d3e565b610f617fd35abb2547751c217255036125c654d1c7fa3d4233c266cd9fcb4e61a44ed15560001b610d3e565b80600460006101000a81548173ffffffffffffffffffffffffffffffffffffffff021916908373ffffffffffffffffffffffffffffffffffffffff16021790555050565b610fad61109d565b73ffffffffffffffffffffffffffffffffffffffff16610fcb610738565b73ffffffffffffffffffffffffffffffffffffffff1614611021576040517f08c379a000000000000000000000000000000000000000000000000000000000815260040161101890611429565b60405180910390fd5b600073ffffffffffffffffffffffffffffffffffffffff168173ffffffffffffffffffffffffffffffffffffffff161415611091576040517f08c379a0000000000000000000000000000000000000000000000000000000008152600401611088906113a9565b60405180910390fd5b61109a816110a5565b50565b600033905090565b60008060009054906101000a900473ffffffffffffffffffffffffffffffffffffffff169050816000806101000a81548173ffffffffffffffffffffffffffffffffffffffff021916908373ffffffffffffffffffffffffffffffffffffffff1602179055508173ffffffffffffffffffffffffffffffffffffffff168173ffffffffffffffffffffffffffffffffffffffff167f8be0079c531659141344cd1fd0a4f28419497f9722a3daafe3b4186f6b6457e060405160405180910390a35050565b60008135905061117881611753565b92915050565b60008151905061118d8161176a565b92915050565b6000813590506111a281611781565b92915050565b6000813590506111b781611798565b92915050565b6000602082840312156111cf57600080fd5b60006111dd84828501611169565b91505092915050565b6000602082840312156111f857600080fd5b60006112068482850161117e565b91505092915050565b60006020828403121561122157600080fd5b600061122f84828501611193565b91505092915050565b60006020828403121561124a57600080fd5b6000611258848285016111a8565b91505092915050565b61126a8161158a565b82525050565b600061127d602683611464565b91506112888261163a565b604082019050919050565b60006112a0602783611464565b91506112ab82611689565b604082019050919050565b60006112c3601483611464565b91506112ce826116d8565b602082019050919050565b60006112e6601c83611464565b91506112f182611701565b602082019050919050565b6000611309602083611464565b91506113148261172a565b602082019050919050565b611328816115d2565b82525050565b60006020820190506113436000830184611261565b92915050565b600060608201905061135e6000830186611261565b61136b6020830185611261565b611378604083018461131f565b949350505050565b60006040820190506113956000830185611261565b6113a2602083018461131f565b9392505050565b600060208201905081810360008301526113c281611270565b9050919050565b600060208201905081810360008301526113e281611293565b9050919050565b60006020820190508181036000830152611402816112b6565b9050919050565b60006020820190508181036000830152611422816112d9565b9050919050565b60006020820190508181036000830152611442816112fc565b9050919050565b600060208201905061145e600083018461131f565b92915050565b600082825260208201905092915050565b6000611480826115d2565b915061148b836115d2565b9250827fffffffffffffffffffffffffffffffffffffffffffffffffffffffffffffffff038211156114c0576114bf6115dc565b5b828201905092915050565b60006114d6826115d2565b91506114e1836115d2565b9250826114f1576114f061160b565b5b828204905092915050565b6000611507826115d2565b9150611512836115d2565b9250817fffffffffffffffffffffffffffffffffffffffffffffffffffffffffffffffff048311821515161561154b5761154a6115dc565b5b828202905092915050565b6000611561826115d2565b915061156c836115d2565b92508282101561157f5761157e6115dc565b5b828203905092915050565b6000611595826115b2565b9050919050565b60008115159050919050565b6000819050919050565b600073ffffffffffffffffffffffffffffffffffffffff82169050919050565b6000819050919050565b7f4e487b7100000000000000000000000000000000000000000000000000000000600052601160045260246000fd5b7f4e487b7100000000000000000000000000000000000000000000000000000000600052601260045260246000fd5b7f4f776e61626c653a206e6577206f776e657220697320746865207a65726f206160008201527f6464726573730000000000000000000000000000000000000000000000000000602082015250565b7f547265617375727920616464726573732063616e6e6f74206265207a65726f2060008201527f6164647265737300000000000000000000000000000000000000000000000000602082015250565b7f496e73756666696369656e742062616c616e6365000000000000000000000000600082015250565b7f43616e6e6f7420756e6c6f636b206265666f7265203220686f75727300000000600082015250565b7f4f776e61626c653a2063616c6c6572206973206e6f7420746865206f776e6572600082015250565b61175c8161158a565b811461176757600080fd5b50565b6117738161159c565b811461177e57600080fd5b50565b61178a816115a8565b811461179557600080fd5b50565b6117a1816115d2565b81146117ac57600080fd5b5056fea2646970667358221220ea906745e1b44b86f262d961714f2c1e36b8ea26a8963b84a25197485f0a402a64736f6c63430008040033",
          "opcodes": "PUSH1 0x80 PUSH1 0x40 MSTORE CALLVALUE DUP1 ISZERO PUSH3 0x11 JUMPI PUSH1 0x0 DUP1 REVERT JUMPDEST POP PUSH1 0x40 MLOAD PUSH3 0x1A90 CODESIZE SUB DUP1 PUSH3 0x1A90 DUP4 CODECOPY DUP2 DUP2 ADD PUSH1 0x40 MSTORE DUP2 ADD SWAP1 PUSH3 0x37 SWAP2 SWAP1 PUSH3 0x221 JUMP JUMPDEST PUSH3 0x57 PUSH3 0x4B PUSH3 0x13B PUSH1 0x20 SHL PUSH1 0x20 SHR JUMP JUMPDEST PUSH3 0x143 PUSH1 0x20 SHL PUSH1 0x20 SHR JUMP JUMPDEST PUSH3 0x8B PUSH32 0xEE51821FB08F06EAEC0B13D3BCB56848CE555D3DDA13C9A77277B6C6D6FA6E1D PUSH1 0x0 SHL PUSH3 0x207 PUSH1 0x20 SHL PUSH1 0x20 SHR JUMP JUMPDEST PUSH3 0xBF PUSH32 0xE9827E468DFF0FCFA1BDB2DCD4E23D4ADB76A73D2524CB4A11BD39F040FBCD73 PUSH1 0x0 SHL PUSH3 0x207 PUSH1 0x20 SHL PUSH1 0x20 SHR JUMP JUMPDEST PUSH3 0xF3 PUSH32 0xA3660F82F95C5B797C4C8D32B605FFC6BAC73BFFBA24DC5C780A2AAB1D41B918 PUSH1 0x0 SHL PUSH3 0x207 PUSH1 0x20 SHL PUSH1 0x20 SHR JUMP JUMPDEST DUP1 PUSH1 0x1 PUSH1 0x0 PUSH2 0x100 EXP DUP2 SLOAD DUP2 PUSH20 0xFFFFFFFFFFFFFFFFFFFFFFFFFFFFFFFFFFFFFFFF MUL NOT AND SWAP1 DUP4 PUSH20 0xFFFFFFFFFFFFFFFFFFFFFFFFFFFFFFFFFFFFFFFF AND MUL OR SWAP1 SSTORE POP POP PUSH3 0x29B JUMP JUMPDEST PUSH1 0x0 CALLER SWAP1 POP SWAP1 JUMP JUMPDEST PUSH1 0x0 DUP1 PUSH1 0x0 SWAP1 SLOAD SWAP1 PUSH2 0x100 EXP SWAP1 DIV PUSH20 0xFFFFFFFFFFFFFFFFFFFFFFFFFFFFFFFFFFFFFFFF AND SWAP1 POP DUP2 PUSH1 0x0 DUP1 PUSH2 0x100 EXP DUP2 SLOAD DUP2 PUSH20 0xFFFFFFFFFFFFFFFFFFFFFFFFFFFFFFFFFFFFFFFF MUL NOT AND SWAP1 DUP4 PUSH20 0xFFFFFFFFFFFFFFFFFFFFFFFFFFFFFFFFFFFFFFFF AND MUL OR SWAP1 SSTORE POP DUP2 PUSH20 0xFFFFFFFFFFFFFFFFFFFFFFFFFFFFFFFFFFFFFFFF AND DUP2 PUSH20 0xFFFFFFFFFFFFFFFFFFFFFFFFFFFFFFFFFFFFFFFF AND PUSH32 0x8BE0079C531659141344CD1FD0A4F28419497F9722A3DAAFE3B4186F6B6457E0 PUSH1 0x40 MLOAD PUSH1 0x40 MLOAD DUP1 SWAP2 SUB SWAP1 LOG3 POP POP JUMP JUMPDEST POP JUMP JUMPDEST PUSH1 0x0 DUP2 MLOAD SWAP1 POP PUSH3 0x21B DUP2 PUSH3 0x281 JUMP JUMPDEST SWAP3 SWAP2 POP POP JUMP JUMPDEST PUSH1 0x0 PUSH1 0x20 DUP3 DUP5 SUB SLT ISZERO PUSH3 0x234 JUMPI PUSH1 0x0 DUP1 REVERT JUMPDEST PUSH1 0x0 PUSH3 0x244 DUP5 DUP3 DUP6 ADD PUSH3 0x20A JUMP JUMPDEST SWAP2 POP POP SWAP3 SWAP2 POP POP JUMP JUMPDEST PUSH1 0x0 PUSH3 0x25A DUP3 PUSH3 0x261 JUMP JUMPDEST SWAP1 POP SWAP2 SWAP1 POP JUMP JUMPDEST PUSH1 0x0 PUSH20 0xFFFFFFFFFFFFFFFFFFFFFFFFFFFFFFFFFFFFFFFF DUP3 AND SWAP1 POP SWAP2 SWAP1 POP JUMP JUMPDEST PUSH3 0x28C DUP2 PUSH3 0x24D JUMP JUMPDEST DUP2 EQ PUSH3 0x298 JUMPI PUSH1 0x0 DUP1 REVERT JUMPDEST POP JUMP JUMPDEST PUSH2 0x17E5 DUP1 PUSH3 0x2AB PUSH1 0x0 CODECOPY PUSH1 0x0 RETURN INVALID PUSH1 0x80 PUSH1 0x40 MSTORE CALLVALUE DUP1 ISZERO PUSH2 0x10 JUMPI PUSH1 0x0 DUP1 REVERT JUMPDEST POP PUSH1 0x4 CALLDATASIZE LT PUSH2 0x9E JUMPI PUSH1 0x0 CALLDATALOAD PUSH1 0xE0 SHR DUP1 PUSH4 0xA694FC3A GT PUSH2 0x66 JUMPI DUP1 PUSH4 0xA694FC3A EQ PUSH2 0x123 JUMPI DUP1 PUSH4 0xD4D5D32A EQ PUSH2 0x13F JUMPI DUP1 PUSH4 0xD9F693A1 EQ PUSH2 0x149 JUMPI DUP1 PUSH4 0xF0F44260 EQ PUSH2 0x165 JUMPI DUP1 PUSH4 0xF2FDE38B EQ PUSH2 0x181 JUMPI PUSH2 0x9E JUMP JUMPDEST DUP1 PUSH4 0x1DF4CCFC EQ PUSH2 0xA3 JUMPI DUP1 PUSH4 0x2E1A7D4D EQ PUSH2 0xC1 JUMPI DUP1 PUSH4 0x61D027B3 EQ PUSH2 0xDD JUMPI DUP1 PUSH4 0x715018A6 EQ PUSH2 0xFB JUMPI DUP1 PUSH4 0x8DA5CB5B EQ PUSH2 0x105 JUMPI JUMPDEST PUSH1 0x0 DUP1 REVERT JUMPDEST PUSH2 0xAB PUSH2 0x19D JUMP JUMPDEST PUSH1 0x40 MLOAD PUSH2 0xB8 SWAP2 SWAP1 PUSH2 0x1449 JUMP JUMPDEST PUSH1 0x40 MLOAD DUP1 SWAP2 SUB SWAP1 RETURN JUMPDEST PUSH2 0xDB PUSH1 0x4 DUP1 CALLDATASIZE SUB DUP2 ADD SWAP1 PUSH2 0xD6 SWAP2 SWAP1 PUSH2 0x1238 JUMP JUMPDEST PUSH2 0x1A3 JUMP JUMPDEST STOP JUMPDEST PUSH2 0xE5 PUSH2 0x68A JUMP JUMPDEST PUSH1 0x40 MLOAD PUSH2 0xF2 SWAP2 SWAP1 PUSH2 0x132E JUMP JUMPDEST PUSH1 0x40 MLOAD DUP1 SWAP2 SUB SWAP1 RETURN JUMPDEST PUSH2 0x103 PUSH2 0x6B0 JUMP JUMPDEST STOP JUMPDEST PUSH2 0x10D PUSH2 0x738 JUMP JUMPDEST PUSH1 0x40 MLOAD PUSH2 0x11A SWAP2 SWAP1 PUSH2 0x132E JUMP JUMPDEST PUSH1 0x40 MLOAD DUP1 SWAP2 SUB SWAP1 RETURN JUMPDEST PUSH2 0x13D PUSH1 0x4 DUP1 CALLDATASIZE SUB DUP2 ADD SWAP1 PUSH2 0x138 SWAP2 SWAP1 PUSH2 0x1238 JUMP JUMPDEST PUSH2 0x761 JUMP JUMPDEST STOP JUMPDEST PUSH2 0x147 PUSH2 0xB68 JUMP JUMPDEST STOP JUMPDEST PUSH2 0x163 PUSH1 0x4 DUP1 CALLDATASIZE SUB DUP2 ADD SWAP1 PUSH2 0x15E SWAP2 SWAP1 PUSH2 0x120F JUMP JUMPDEST PUSH2 0xD3E JUMP JUMPDEST STOP JUMPDEST PUSH2 0x17F PUSH1 0x4 DUP1 CALLDATASIZE SUB DUP2 ADD SWAP1 PUSH2 0x17A SWAP2 SWAP1 PUSH2 0x11BD JUMP JUMPDEST PUSH2 0xD41 JUMP JUMPDEST STOP JUMPDEST PUSH2 0x19B PUSH1 0x4 DUP1 CALLDATASIZE SUB DUP2 ADD SWAP1 PUSH2 0x196 SWAP2 SWAP1 PUSH2 0x11BD JUMP JUMPDEST PUSH2 0xFA5 JUMP JUMPDEST STOP JUMPDEST PUSH1 0x5 SLOAD DUP2 JUMP JUMPDEST PUSH2 0x1CF PUSH32 0x23D83F960D43ED63675866B08081CDD5F7E5391A96A624B5F69717D16C2B1CA3 PUSH1 0x0 SHL PUSH2 0xD3E JUMP JUMPDEST PUSH2 0x1FB PUSH32 0xAA7FD2B8CBB1B4DCB5ED97297D3C44EAF4E74FEB5A04754E832E7D7F0A90DA95 PUSH1 0x0 SHL PUSH2 0xD3E JUMP JUMPDEST PUSH2 0x227 PUSH32 0xB923D378C9C75B21C98AAC5EA4DF43ADE02330C929745102B14EC8A0576571E7 PUSH1 0x0 SHL PUSH2 0xD3E JUMP JUMPDEST PUSH2 0x253 PUSH32 0xF6E86880BB41EEFF3A8143D02E7FF8E13F80E1DEF662B9390E617183C75E097F PUSH1 0x0 SHL PUSH2 0xD3E JUMP JUMPDEST PUSH1 0x2 PUSH1 0x0 CALLER PUSH20 0xFFFFFFFFFFFFFFFFFFFFFFFFFFFFFFFFFFFFFFFF AND PUSH20 0xFFFFFFFFFFFFFFFFFFFFFFFFFFFFFFFFFFFFFFFF AND DUP2 MSTORE PUSH1 0x20 ADD SWAP1 DUP2 MSTORE PUSH1 0x20 ADD PUSH1 0x0 KECCAK256 SLOAD DUP2 GT ISZERO PUSH2 0x2D5 JUMPI PUSH1 0x40 MLOAD PUSH32 0x8C379A000000000000000000000000000000000000000000000000000000000 DUP2 MSTORE PUSH1 0x4 ADD PUSH2 0x2CC SWAP1 PUSH2 0x13E9 JUMP JUMPDEST PUSH1 0x40 MLOAD DUP1 SWAP2 SUB SWAP1 REVERT JUMPDEST PUSH2 0x301 PUSH32 0x5BF0E97C916F870142C85AD89AC8A9A36FDC045FCBC9192DA0968232C804C3CD PUSH1 0x0 SHL PUSH2 0xD3E JUMP JUMPDEST PUSH2 0x32D PUSH32 0x8672D46B315005A101625C306647EBDBDBD142186C1CBCF03DA6AA98168C5F75 PUSH1 0x0 SHL PUSH2 0xD3E JUMP JUMPDEST PUSH2 0x359 PUSH32 0xC4285315530D7AE46E2E74714923B941058D386EDE2C877B4F45CBD424D1BD5C PUSH1 0x0 SHL PUSH2 0xD3E JUMP JUMPDEST PUSH2 0x385 PUSH32 0x9100F3DDD123CA9D6D5AB3BC719278F6DC683A5747C81B71A9BEBDA8E83F8B9B PUSH1 0x0 SHL PUSH2 0xD3E JUMP JUMPDEST PUSH2 0x1C20 PUSH1 0x3 PUSH1 0x0 CALLER PUSH20 0xFFFFFFFFFFFFFFFFFFFFFFFFFFFFFFFFFFFFFFFF AND PUSH20 0xFFFFFFFFFFFFFFFFFFFFFFFFFFFFFFFFFFFFFFFF AND DUP2 MSTORE PUSH1 0x20 ADD SWAP1 DUP2 MSTORE PUSH1 0x20 ADD PUSH1 0x0 KECCAK256 SLOAD TIMESTAMP PUSH2 0x3D3 SWAP2 SWAP1 PUSH2 0x1556 JUMP JUMPDEST LT ISZERO PUSH2 0x414 JUMPI PUSH1 0x40 MLOAD PUSH32 0x8C379A000000000000000000000000000000000000000000000000000000000 DUP2 MSTORE PUSH1 0x4 ADD PUSH2 0x40B SWAP1 PUSH2 0x1409 JUMP JUMPDEST PUSH1 0x40 MLOAD DUP1 SWAP2 SUB SWAP1 REVERT JUMPDEST PUSH2 0x440 PUSH32 0xB02663E93E626C249E14A1CC30622834644F9667C117473D401B655D4D026214 PUSH1 0x0 SHL PUSH2 0xD3E JUMP JUMPDEST PUSH2 0x46C PUSH32 0x5DE0A758E374C0C52DCB172D23E725E60A61D593D554E8002A5B39AED4B1960A PUSH1 0x0 SHL PUSH2 0xD3E JUMP JUMPDEST PUSH2 0x498 PUSH32 0x754707468ED437BB5AAFA7AD706A4F4C42D568D49A54A145D3CA89CC7E8C2FB1 PUSH1 0x0 SHL PUSH2 0xD3E JUMP JUMPDEST DUP1 PUSH1 0x2 PUSH1 0x0 CALLER PUSH20 0xFFFFFFFFFFFFFFFFFFFFFFFFFFFFFFFFFFFFFFFF AND PUSH20 0xFFFFFFFFFFFFFFFFFFFFFFFFFFFFFFFFFFFFFFFF AND DUP2 MSTORE PUSH1 0x20 ADD SWAP1 DUP2 MSTORE PUSH1 0x20 ADD PUSH1 0x0 KECCAK256 PUSH1 0x0 DUP3 DUP3 SLOAD PUSH2 0x4E7 SWAP2 SWAP1 PUSH2 0x1556 JUMP JUMPDEST SWAP3 POP POP DUP2 SWAP1 SSTORE POP PUSH2 0x51A PUSH32 0x4A46D5C3018FAD0C333C80D41DE6CCEB8CD70E92CC167EFE7752A58B6FC8AFD2 PUSH1 0x0 SHL PUSH2 0xD3E JUMP JUMPDEST PUSH2 0x546 PUSH32 0xD46082C3A4DBE86155CC9ED86B4D71217CC6161BB979F66C58CE0F7DFCAC5547 PUSH1 0x0 SHL PUSH2 0xD3E JUMP JUMPDEST PUSH1 0x1 PUSH1 0x0 SWAP1 SLOAD SWAP1 PUSH2 0x100 EXP SWAP1 DIV PUSH20 0xFFFFFFFFFFFFFFFFFFFFFFFFFFFFFFFFFFFFFFFF AND PUSH20 0xFFFFFFFFFFFFFFFFFFFFFFFFFFFFFFFFFFFFFFFF AND PUSH4 0xA9059CBB CALLER DUP4 PUSH1 0x40 MLOAD DUP4 PUSH4 0xFFFFFFFF AND PUSH1 0xE0 SHL DUP2 MSTORE PUSH1 0x4 ADD PUSH2 0x5A3 SWAP3 SWAP2 SWAP1 PUSH2 0x1380 JUMP JUMPDEST PUSH1 0x20 PUSH1 0x40 MLOAD DUP1 DUP4 SUB DUP2 PUSH1 0x0 DUP8 DUP1 EXTCODESIZE ISZERO DUP1 ISZERO PUSH2 0x5BD JUMPI PUSH1 0x0 DUP1 REVERT JUMPDEST POP GAS CALL ISZERO DUP1 ISZERO PUSH2 0x5D1 JUMPI RETURNDATASIZE PUSH1 0x0 DUP1 RETURNDATACOPY RETURNDATASIZE PUSH1 0x0 REVERT JUMPDEST POP POP POP POP PUSH1 0x40 MLOAD RETURNDATASIZE PUSH1 0x1F NOT PUSH1 0x1F DUP3 ADD AND DUP3 ADD DUP1 PUSH1 0x40 MSTORE POP DUP2 ADD SWAP1 PUSH2 0x5F5 SWAP2 SWAP1 PUSH2 0x11E6 JUMP JUMPDEST POP PUSH2 0x622 PUSH32 0x16429420558821D5A3137AFC7BFEE3C33E0797181D12470CABD7A05589BDAEAA PUSH1 0x0 SHL PUSH2 0xD3E JUMP JUMPDEST PUSH2 0x64E PUSH32 0xD97776B1B97B02DB840FFED0A2C26F6180A37C9ADD3EEFBC24BAA41320403600 PUSH1 0x0 SHL PUSH2 0xD3E JUMP JUMPDEST PUSH32 0x5DBA113B49CFA7C90315E8E604E6B506F7ABCB909B01DCB19EC39005086E68FC CALLER DUP3 PUSH1 0x40 MLOAD PUSH2 0x67F SWAP3 SWAP2 SWAP1 PUSH2 0x1380 JUMP JUMPDEST PUSH1 0x40 MLOAD DUP1 SWAP2 SUB SWAP1 LOG1 POP JUMP JUMPDEST PUSH1 0x4 PUSH1 0x0 SWAP1 SLOAD SWAP1 PUSH2 0x100 EXP SWAP1 DIV PUSH20 0xFFFFFFFFFFFFFFFFFFFFFFFFFFFFFFFFFFFFFFFF AND DUP2 JUMP JUMPDEST PUSH2 0x6B8 PUSH2 0x109D JUMP JUMPDEST PUSH20 0xFFFFFFFFFFFFFFFFFFFFFFFFFFFFFFFFFFFFFFFF AND PUSH2 0x6D6 PUSH2 0x738 JUMP JUMPDEST PUSH20 0xFFFFFFFFFFFFFFFFFFFFFFFFFFFFFFFFFFFFFFFF AND EQ PUSH2 0x72C JUMPI PUSH1 0x40 MLOAD PUSH32 0x8C379A000000000000000000000000000000000000000000000000000000000 DUP2 MSTORE PUSH1 0x4 ADD PUSH2 0x723 SWAP1 PUSH2 0x1429 JUMP JUMPDEST PUSH1 0x40 MLOAD DUP1 SWAP2 SUB SWAP1 REVERT JUMPDEST PUSH2 0x736 PUSH1 0x0 PUSH2 0x10A5 JUMP JUMPDEST JUMP JUMPDEST PUSH1 0x0 DUP1 PUSH1 0x0 SWAP1 SLOAD SWAP1 PUSH2 0x100 EXP SWAP1 DIV PUSH20 0xFFFFFFFFFFFFFFFFFFFFFFFFFFFFFFFFFFFFFFFF AND SWAP1 POP SWAP1 JUMP JUMPDEST PUSH2 0x78D PUSH32 0xD471517AB783F9A1BCC5D793AA4325EFF2C6EB52FEF62A02A0D6E9BF835DCB57 PUSH1 0x0 SHL PUSH2 0xD3E JUMP JUMPDEST PUSH2 0x7B9 PUSH32 0x7B2D2D1687EDACD27E9D1593ACD4E89D15C790272198AFC9999365EECFCE9B4B PUSH1 0x0 SHL PUSH2 0xD3E JUMP JUMPDEST PUSH2 0x7E5 PUSH32 0xA08EB4AF85089E832650E1EE89502AFBDB064CB05503E688E163D9F69E2EB6C2 PUSH1 0x0 SHL PUSH2 0xD3E JUMP JUMPDEST PUSH1 0x0 PUSH2 0x3E8 PUSH1 0x2 DUP4 PUSH2 0x7F7 SWAP2 SWAP1 PUSH2 0x14FC JUMP JUMPDEST PUSH2 0x801 SWAP2 SWAP1 PUSH2 0x14CB JUMP JUMPDEST SWAP1 POP PUSH2 0x82F PUSH32 0x233C1A7740B7D18929C9C5836AB364E300D4551CB05992162AF434A8CE86EEC0 PUSH1 0x0 SHL PUSH2 0xD3E JUMP JUMPDEST PUSH2 0x85B PUSH32 0x50BF91C24F46BE4F3A8D51A0B2ADDF63454D29D6C208FE57D70DDA6F5472D906 PUSH1 0x0 SHL PUSH2 0xD3E JUMP JUMPDEST DUP1 PUSH1 0x5 PUSH1 0x0 DUP3 DUP3 SLOAD PUSH2 0x86D SWAP2 SWAP1 PUSH2 0x1475 JUMP JUMPDEST SWAP3 POP POP DUP2 SWAP1 SSTORE POP PUSH2 0x8A0 PUSH32 0x6377BD3F7902C61AD8F46D7E9FBFD9315B7DB7CEA1EA17804B3592B55AEEA8C PUSH1 0x0 SHL PUSH2 0xD3E JUMP JUMPDEST PUSH2 0x8CC PUSH32 0x2D39DCB8679EE4FBD113811BA9F626710554DB4457CB66FF7809D16AB9A38E93 PUSH1 0x0 SHL PUSH2 0xD3E JUMP JUMPDEST TIMESTAMP PUSH1 0x3 PUSH1 0x0 CALLER PUSH20 0xFFFFFFFFFFFFFFFFFFFFFFFFFFFFFFFFFFFFFFFF AND PUSH20 0xFFFFFFFFFFFFFFFFFFFFFFFFFFFFFFFFFFFFFFFF AND DUP2 MSTORE PUSH1 0x20 ADD SWAP1 DUP2 MSTORE PUSH1 0x20 ADD PUSH1 0x0 KECCAK256 DUP2 SWAP1 SSTORE POP PUSH2 0x93C PUSH32 0x6FE1B3D9FDED505425A70413EF3415091DC401F93C94FC8C1819A1BB9DA0211C PUSH1 0x0 SHL PUSH2 0xD3E JUMP JUMPDEST PUSH2 0x968 PUSH32 0x2F6F9B8E06100EB23B39B74F8F95BE2AA73340913575494EB8CC1CC3634BA4A5 PUSH1 0x0 SHL PUSH2 0xD3E JUMP JUMPDEST DUP1 DUP3 PUSH2 0x974 SWAP2 SWAP1 PUSH2 0x1556 JUMP JUMPDEST PUSH1 0x2 PUSH1 0x0 CALLER PUSH20 0xFFFFFFFFFFFFFFFFFFFFFFFFFFFFFFFFFFFFFFFF AND PUSH20 0xFFFFFFFFFFFFFFFFFFFFFFFFFFFFFFFFFFFFFFFF AND DUP2 MSTORE PUSH1 0x20 ADD SWAP1 DUP2 MSTORE PUSH1 0x20 ADD PUSH1 0x0 KECCAK256 PUSH1 0x0 DUP3 DUP3 SLOAD PUSH2 0x9C2 SWAP2 SWAP1 PUSH2 0x1475 JUMP JUMPDEST SWAP3 POP POP DUP2 SWAP1 SSTORE POP PUSH2 0x9F5 PUSH32 0xE8A83E53B424A6D437346CB054567DBCB5569750BE561EB673B4FA1B3267B6D0 PUSH1 0x0 SHL PUSH2 0xD3E JUMP JUMPDEST PUSH2 0xA21 PUSH32 0x33A0A09D85A6BADDCEA720DC133D9E4DEAADFD5E5A50B7645936C3154C7D7AC0 PUSH1 0x0 SHL PUSH2 0xD3E JUMP JUMPDEST PUSH1 0x1 PUSH1 0x0 SWAP1 SLOAD SWAP1 PUSH2 0x100 EXP SWAP1 DIV PUSH20 0xFFFFFFFFFFFFFFFFFFFFFFFFFFFFFFFFFFFFFFFF AND PUSH20 0xFFFFFFFFFFFFFFFFFFFFFFFFFFFFFFFFFFFFFFFF AND PUSH4 0x23B872DD CALLER ADDRESS DUP6 PUSH1 0x40 MLOAD DUP5 PUSH4 0xFFFFFFFF AND PUSH1 0xE0 SHL DUP2 MSTORE PUSH1 0x4 ADD PUSH2 0xA80 SWAP4 SWAP3 SWAP2 SWAP1 PUSH2 0x1349 JUMP JUMPDEST PUSH1 0x20 PUSH1 0x40 MLOAD DUP1 DUP4 SUB DUP2 PUSH1 0x0 DUP8 DUP1 EXTCODESIZE ISZERO DUP1 ISZERO PUSH2 0xA9A JUMPI PUSH1 0x0 DUP1 REVERT JUMPDEST POP GAS CALL ISZERO DUP1 ISZERO PUSH2 0xAAE JUMPI RETURNDATASIZE PUSH1 0x0 DUP1 RETURNDATACOPY RETURNDATASIZE PUSH1 0x0 REVERT JUMPDEST POP POP POP POP PUSH1 0x40 MLOAD RETURNDATASIZE PUSH1 0x1F NOT PUSH1 0x1F DUP3 ADD AND DUP3 ADD DUP1 PUSH1 0x40 MSTORE POP DUP2 ADD SWAP1 PUSH2 0xAD2 SWAP2 SWAP1 PUSH2 0x11E6 JUMP JUMPDEST POP PUSH2 0xAFF PUSH32 0xA7957C6005A6885A019336B2BF64C2C68EEDBFE9035B20E4768153798D56265C PUSH1 0x0 SHL PUSH2 0xD3E JUMP JUMPDEST PUSH2 0xB2B PUSH32 0x72BB212B0F7D898221529CD90AA143C2AD8483776B37E272F5FC6F381281C63C PUSH1 0x0 SHL PUSH2 0xD3E JUMP JUMPDEST PUSH32 0xB58845B0A64F92DD8D1BA04F905319D6BE2021B57783B3D10155E7E36A84E128 CALLER DUP4 PUSH1 0x40 MLOAD PUSH2 0xB5C SWAP3 SWAP2 SWAP1 PUSH2 0x1380 JUMP JUMPDEST PUSH1 0x40 MLOAD DUP1 SWAP2 SUB SWAP1 LOG1 POP POP JUMP JUMPDEST PUSH2 0xB70 PUSH2 0x109D JUMP JUMPDEST PUSH20 0xFFFFFFFFFFFFFFFFFFFFFFFFFFFFFFFFFFFFFFFF AND PUSH2 0xB8E PUSH2 0x738 JUMP JUMPDEST PUSH20 0xFFFFFFFFFFFFFFFFFFFFFFFFFFFFFFFFFFFFFFFF AND EQ PUSH2 0xBE4 JUMPI PUSH1 0x40 MLOAD PUSH32 0x8C379A000000000000000000000000000000000000000000000000000000000 DUP2 MSTORE PUSH1 0x4 ADD PUSH2 0xBDB SWAP1 PUSH2 0x1429 JUMP JUMPDEST PUSH1 0x40 MLOAD DUP1 SWAP2 SUB SWAP1 REVERT JUMPDEST PUSH2 0xC10 PUSH32 0x2B30F971D93193E7EC44378CFC25E32BBF62C7FAE810649795EE59109DBC90CF PUSH1 0x0 SHL PUSH2 0xD3E JUMP JUMPDEST PUSH2 0xC3C PUSH32 0xA01DE16B901264C5ED851F7029000320346A43EB796CED7A2607AACFA0FC6E96 PUSH1 0x0 SHL PUSH2 0xD3E JUMP JUMPDEST PUSH2 0xC68 PUSH32 0xC0A27B29067C81BE0945DFED33CFA36608D848A040381E0F115E02F8BDA9C661 PUSH1 0x0 SHL PUSH2 0xD3E JUMP JUMPDEST PUSH1 0x1 PUSH1 0x0 SWAP1 SLOAD SWAP1 PUSH2 0x100 EXP SWAP1 DIV PUSH20 0xFFFFFFFFFFFFFFFFFFFFFFFFFFFFFFFFFFFFFFFF AND PUSH20 0xFFFFFFFFFFFFFFFFFFFFFFFFFFFFFFFFFFFFFFFF AND PUSH4 0xA9059CBB PUSH1 0x4 PUSH1 0x0 SWAP1 SLOAD SWAP1 PUSH2 0x100 EXP SWAP1 DIV PUSH20 0xFFFFFFFFFFFFFFFFFFFFFFFFFFFFFFFFFFFFFFFF AND PUSH1 0x5 SLOAD PUSH1 0x40 MLOAD DUP4 PUSH4 0xFFFFFFFF AND PUSH1 0xE0 SHL DUP2 MSTORE PUSH1 0x4 ADD PUSH2 0xCE9 SWAP3 SWAP2 SWAP1 PUSH2 0x1380 JUMP JUMPDEST PUSH1 0x20 PUSH1 0x40 MLOAD DUP1 DUP4 SUB DUP2 PUSH1 0x0 DUP8 DUP1 EXTCODESIZE ISZERO DUP1 ISZERO PUSH2 0xD03 JUMPI PUSH1 0x0 DUP1 REVERT JUMPDEST POP GAS CALL ISZERO DUP1 ISZERO PUSH2 0xD17 JUMPI RETURNDATASIZE PUSH1 0x0 DUP1 RETURNDATACOPY RETURNDATASIZE PUSH1 0x0 REVERT JUMPDEST POP POP POP POP PUSH1 0x40 MLOAD RETURNDATASIZE PUSH1 0x1F NOT PUSH1 0x1F DUP3 ADD AND DUP3 ADD DUP1 PUSH1 0x40 MSTORE POP DUP2 ADD SWAP1 PUSH2 0xD3B SWAP2 SWAP1 PUSH2 0x11E6 JUMP JUMPDEST POP JUMP JUMPDEST POP JUMP JUMPDEST PUSH2 0xD49 PUSH2 0x109D JUMP JUMPDEST PUSH20 0xFFFFFFFFFFFFFFFFFFFFFFFFFFFFFFFFFFFFFFFF AND PUSH2 0xD67 PUSH2 0x738 JUMP JUMPDEST PUSH20 0xFFFFFFFFFFFFFFFFFFFFFFFFFFFFFFFFFFFFFFFF AND EQ PUSH2 0xDBD JUMPI PUSH1 0x40 MLOAD PUSH32 0x8C379A000000000000000000000000000000000000000000000000000000000 DUP2 MSTORE PUSH1 0x4 ADD PUSH2 0xDB4 SWAP1 PUSH2 0x1429 JUMP JUMPDEST PUSH1 0x40 MLOAD DUP1 SWAP2 SUB SWAP1 REVERT JUMPDEST PUSH2 0xDE9 PUSH32 0xA67157F2ABF0C7A326930397BE4B61F61516C42735F36EF02980AD0E7F4D7AF4 PUSH1 0x0 SHL PUSH2 0xD3E JUMP JUMPDEST PUSH2 0xE15 PUSH32 0x8AB288E800F11D729D240843C656378573E55629A619371DC07C38F33E9A142B PUSH1 0x0 SHL PUSH2 0xD3E JUMP JUMPDEST PUSH2 0xE41 PUSH32 0x637A24FF3562B2DB39293880F6385F0DE441E91A68C39F90BFC0EDB2477CAC47 PUSH1 0x0 SHL PUSH2 0xD3E JUMP JUMPDEST PUSH2 0xE6D PUSH32 0xD1F431D1BBCE0E98AB0B7DDD38D43E669DE71112B861EC733DBB625A150DD0D4 PUSH1 0x0 SHL PUSH2 0xD3E JUMP JUMPDEST PUSH1 0x0 PUSH20 0xFFFFFFFFFFFFFFFFFFFFFFFFFFFFFFFFFFFFFFFF AND DUP2 PUSH20 0xFFFFFFFFFFFFFFFFFFFFFFFFFFFFFFFFFFFFFFFF AND EQ ISZERO PUSH2 0xEDD JUMPI PUSH1 0x40 MLOAD PUSH32 0x8C379A000000000000000000000000000000000000000000000000000000000 DUP2 MSTORE PUSH1 0x4 ADD PUSH2 0xED4 SWAP1 PUSH2 0x13C9 JUMP JUMPDEST PUSH1 0x40 MLOAD DUP1 SWAP2 SUB SWAP1 REVERT JUMPDEST PUSH2 0xF09 PUSH32 0x830022A9251757F5993636AA4922AB2605B08E7567BFE345CF33C7603E73EB17 PUSH1 0x0 SHL PUSH2 0xD3E JUMP JUMPDEST PUSH2 0xF35 PUSH32 0x4F05B0DACAB3E3435443AC808DC4356BC5B4C97AB405D38B2AB7FC0D24E782AF PUSH1 0x0 SHL PUSH2 0xD3E JUMP JUMPDEST PUSH2 0xF61 PUSH32 0xD35ABB2547751C217255036125C654D1C7FA3D4233C266CD9FCB4E61A44ED155 PUSH1 0x0 SHL PUSH2 0xD3E JUMP JUMPDEST DUP1 PUSH1 0x4 PUSH1 0x0 PUSH2 0x100 EXP DUP2 SLOAD DUP2 PUSH20 0xFFFFFFFFFFFFFFFFFFFFFFFFFFFFFFFFFFFFFFFF MUL NOT AND SWAP1 DUP4 PUSH20 0xFFFFFFFFFFFFFFFFFFFFFFFFFFFFFFFFFFFFFFFF AND MUL OR SWAP1 SSTORE POP POP JUMP JUMPDEST PUSH2 0xFAD PUSH2 0x109D JUMP JUMPDEST PUSH20 0xFFFFFFFFFFFFFFFFFFFFFFFFFFFFFFFFFFFFFFFF AND PUSH2 0xFCB PUSH2 0x738 JUMP JUMPDEST PUSH20 0xFFFFFFFFFFFFFFFFFFFFFFFFFFFFFFFFFFFFFFFF AND EQ PUSH2 0x1021 JUMPI PUSH1 0x40 MLOAD PUSH32 0x8C379A000000000000000000000000000000000000000000000000000000000 DUP2 MSTORE PUSH1 0x4 ADD PUSH2 0x1018 SWAP1 PUSH2 0x1429 JUMP JUMPDEST PUSH1 0x40 MLOAD DUP1 SWAP2 SUB SWAP1 REVERT JUMPDEST PUSH1 0x0 PUSH20 0xFFFFFFFFFFFFFFFFFFFFFFFFFFFFFFFFFFFFFFFF AND DUP2 PUSH20 0xFFFFFFFFFFFFFFFFFFFFFFFFFFFFFFFFFFFFFFFF AND EQ ISZERO PUSH2 0x1091 JUMPI PUSH1 0x40 MLOAD PUSH32 0x8C379A000000000000000000000000000000000000000000000000000000000 DUP2 MSTORE PUSH1 0x4 ADD PUSH2 0x1088 SWAP1 PUSH2 0x13A9 JUMP JUMPDEST PUSH1 0x40 MLOAD DUP1 SWAP2 SUB SWAP1 REVERT JUMPDEST PUSH2 0x109A DUP2 PUSH2 0x10A5 JUMP JUMPDEST POP JUMP JUMPDEST PUSH1 0x0 CALLER SWAP1 POP SWAP1 JUMP JUMPDEST PUSH1 0x0 DUP1 PUSH1 0x0 SWAP1 SLOAD SWAP1 PUSH2 0x100 EXP SWAP1 DIV PUSH20 0xFFFFFFFFFFFFFFFFFFFFFFFFFFFFFFFFFFFFFFFF AND SWAP1 POP DUP2 PUSH1 0x0 DUP1 PUSH2 0x100 EXP DUP2 SLOAD DUP2 PUSH20 0xFFFFFFFFFFFFFFFFFFFFFFFFFFFFFFFFFFFFFFFF MUL NOT AND SWAP1 DUP4 PUSH20 0xFFFFFFFFFFFFFFFFFFFFFFFFFFFFFFFFFFFFFFFF AND MUL OR SWAP1 SSTORE POP DUP2 PUSH20 0xFFFFFFFFFFFFFFFFFFFFFFFFFFFFFFFFFFFFFFFF AND DUP2 PUSH20 0xFFFFFFFFFFFFFFFFFFFFFFFFFFFFFFFFFFFFFFFF AND PUSH32 0x8BE0079C531659141344CD1FD0A4F28419497F9722A3DAAFE3B4186F6B6457E0 PUSH1 0x40 MLOAD PUSH1 0x40 MLOAD DUP1 SWAP2 SUB SWAP1 LOG3 POP POP JUMP JUMPDEST PUSH1 0x0 DUP2 CALLDATALOAD SWAP1 POP PUSH2 0x1178 DUP2 PUSH2 0x1753 JUMP JUMPDEST SWAP3 SWAP2 POP POP JUMP JUMPDEST PUSH1 0x0 DUP2 MLOAD SWAP1 POP PUSH2 0x118D DUP2 PUSH2 0x176A JUMP JUMPDEST SWAP3 SWAP2 POP POP JUMP JUMPDEST PUSH1 0x0 DUP2 CALLDATALOAD SWAP1 POP PUSH2 0x11A2 DUP2 PUSH2 0x1781 JUMP JUMPDEST SWAP3 SWAP2 POP POP JUMP JUMPDEST PUSH1 0x0 DUP2 CALLDATALOAD SWAP1 POP PUSH2 0x11B7 DUP2 PUSH2 0x1798 JUMP JUMPDEST SWAP3 SWAP2 POP POP JUMP JUMPDEST PUSH1 0x0 PUSH1 0x20 DUP3 DUP5 SUB SLT ISZERO PUSH2 0x11CF JUMPI PUSH1 0x0 DUP1 REVERT JUMPDEST PUSH1 0x0 PUSH2 0x11DD DUP5 DUP3 DUP6 ADD PUSH2 0x1169 JUMP JUMPDEST SWAP2 POP POP SWAP3 SWAP2 POP POP JUMP JUMPDEST PUSH1 0x0 PUSH1 0x20 DUP3 DUP5 SUB SLT ISZERO PUSH2 0x11F8 JUMPI PUSH1 0x0 DUP1 REVERT JUMPDEST PUSH1 0x0 PUSH2 0x1206 DUP5 DUP3 DUP6 ADD PUSH2 0x117E JUMP JUMPDEST SWAP2 POP POP SWAP3 SWAP2 POP POP JUMP JUMPDEST PUSH1 0x0 PUSH1 0x20 DUP3 DUP5 SUB SLT ISZERO PUSH2 0x1221 JUMPI PUSH1 0x0 DUP1 REVERT JUMPDEST PUSH1 0x0 PUSH2 0x122F DUP5 DUP3 DUP6 ADD PUSH2 0x1193 JUMP JUMPDEST SWAP2 POP POP SWAP3 SWAP2 POP POP JUMP JUMPDEST PUSH1 0x0 PUSH1 0x20 DUP3 DUP5 SUB SLT ISZERO PUSH2 0x124A JUMPI PUSH1 0x0 DUP1 REVERT JUMPDEST PUSH1 0x0 PUSH2 0x1258 DUP5 DUP3 DUP6 ADD PUSH2 0x11A8 JUMP JUMPDEST SWAP2 POP POP SWAP3 SWAP2 POP POP JUMP JUMPDEST PUSH2 0x126A DUP2 PUSH2 0x158A JUMP JUMPDEST DUP3 MSTORE POP POP JUMP JUMPDEST PUSH1 0x0 PUSH2 0x127D PUSH1 0x26 DUP4 PUSH2 0x1464 JUMP JUMPDEST SWAP2 POP PUSH2 0x1288 DUP3 PUSH2 0x163A JUMP JUMPDEST PUSH1 0x40 DUP3 ADD SWAP1 POP SWAP2 SWAP1 POP JUMP JUMPDEST PUSH1 0x0 PUSH2 0x12A0 PUSH1 0x27 DUP4 PUSH2 0x1464 JUMP JUMPDEST SWAP2 POP PUSH2 0x12AB DUP3 PUSH2 0x1689 JUMP JUMPDEST PUSH1 0x40 DUP3 ADD SWAP1 POP SWAP2 SWAP1 POP JUMP JUMPDEST PUSH1 0x0 PUSH2 0x12C3 PUSH1 0x14 DUP4 PUSH2 0x1464 JUMP JUMPDEST SWAP2 POP PUSH2 0x12CE DUP3 PUSH2 0x16D8 JUMP JUMPDEST PUSH1 0x20 DUP3 ADD SWAP1 POP SWAP2 SWAP1 POP JUMP JUMPDEST PUSH1 0x0 PUSH2 0x12E6 PUSH1 0x1C DUP4 PUSH2 0x1464 JUMP JUMPDEST SWAP2 POP PUSH2 0x12F1 DUP3 PUSH2 0x1701 JUMP JUMPDEST PUSH1 0x20 DUP3 ADD SWAP1 POP SWAP2 SWAP1 POP JUMP JUMPDEST PUSH1 0x0 PUSH2 0x1309 PUSH1 0x20 DUP4 PUSH2 0x1464 JUMP JUMPDEST SWAP2 POP PUSH2 0x1314 DUP3 PUSH2 0x172A JUMP JUMPDEST PUSH1 0x20 DUP3 ADD SWAP1 POP SWAP2 SWAP1 POP JUMP JUMPDEST PUSH2 0x1328 DUP2 PUSH2 0x15D2 JUMP JUMPDEST DUP3 MSTORE POP POP JUMP JUMPDEST PUSH1 0x0 PUSH1 0x20 DUP3 ADD SWAP1 POP PUSH2 0x1343 PUSH1 0x0 DUP4 ADD DUP5 PUSH2 0x1261 JUMP JUMPDEST SWAP3 SWAP2 POP POP JUMP JUMPDEST PUSH1 0x0 PUSH1 0x60 DUP3 ADD SWAP1 POP PUSH2 0x135E PUSH1 0x0 DUP4 ADD DUP7 PUSH2 0x1261 JUMP JUMPDEST PUSH2 0x136B PUSH1 0x20 DUP4 ADD DUP6 PUSH2 0x1261 JUMP JUMPDEST PUSH2 0x1378 PUSH1 0x40 DUP4 ADD DUP5 PUSH2 0x131F JUMP JUMPDEST SWAP5 SWAP4 POP POP POP POP JUMP JUMPDEST PUSH1 0x0 PUSH1 0x40 DUP3 ADD SWAP1 POP PUSH2 0x1395 PUSH1 0x0 DUP4 ADD DUP6 PUSH2 0x1261 JUMP JUMPDEST PUSH2 0x13A2 PUSH1 0x20 DUP4 ADD DUP5 PUSH2 0x131F JUMP JUMPDEST SWAP4 SWAP3 POP POP POP JUMP JUMPDEST PUSH1 0x0 PUSH1 0x20 DUP3 ADD SWAP1 POP DUP2 DUP2 SUB PUSH1 0x0 DUP4 ADD MSTORE PUSH2 0x13C2 DUP2 PUSH2 0x1270 JUMP JUMPDEST SWAP1 POP SWAP2 SWAP1 POP JUMP JUMPDEST PUSH1 0x0 PUSH1 0x20 DUP3 ADD SWAP1 POP DUP2 DUP2 SUB PUSH1 0x0 DUP4 ADD MSTORE PUSH2 0x13E2 DUP2 PUSH2 0x1293 JUMP JUMPDEST SWAP1 POP SWAP2 SWAP1 POP JUMP JUMPDEST PUSH1 0x0 PUSH1 0x20 DUP3 ADD SWAP1 POP DUP2 DUP2 SUB PUSH1 0x0 DUP4 ADD MSTORE PUSH2 0x1402 DUP2 PUSH2 0x12B6 JUMP JUMPDEST SWAP1 POP SWAP2 SWAP1 POP JUMP JUMPDEST PUSH1 0x0 PUSH1 0x20 DUP3 ADD SWAP1 POP DUP2 DUP2 SUB PUSH1 0x0 DUP4 ADD MSTORE PUSH2 0x1422 DUP2 PUSH2 0x12D9 JUMP JUMPDEST SWAP1 POP SWAP2 SWAP1 POP JUMP JUMPDEST PUSH1 0x0 PUSH1 0x20 DUP3 ADD SWAP1 POP DUP2 DUP2 SUB PUSH1 0x0 DUP4 ADD MSTORE PUSH2 0x1442 DUP2 PUSH2 0x12FC JUMP JUMPDEST SWAP1 POP SWAP2 SWAP1 POP JUMP JUMPDEST PUSH1 0x0 PUSH1 0x20 DUP3 ADD SWAP1 POP PUSH2 0x145E PUSH1 0x0 DUP4 ADD DUP5 PUSH2 0x131F JUMP JUMPDEST SWAP3 SWAP2 POP POP JUMP JUMPDEST PUSH1 0x0 DUP3 DUP3 MSTORE PUSH1 0x20 DUP3 ADD SWAP1 POP SWAP3 SWAP2 POP POP JUMP JUMPDEST PUSH1 0x0 PUSH2 0x1480 DUP3 PUSH2 0x15D2 JUMP JUMPDEST SWAP2 POP PUSH2 0x148B DUP4 PUSH2 0x15D2 JUMP JUMPDEST SWAP3 POP DUP3 PUSH32 0xFFFFFFFFFFFFFFFFFFFFFFFFFFFFFFFFFFFFFFFFFFFFFFFFFFFFFFFFFFFFFFFF SUB DUP3 GT ISZERO PUSH2 0x14C0 JUMPI PUSH2 0x14BF PUSH2 0x15DC JUMP JUMPDEST JUMPDEST DUP3 DUP3 ADD SWAP1 POP SWAP3 SWAP2 POP POP JUMP JUMPDEST PUSH1 0x0 PUSH2 0x14D6 DUP3 PUSH2 0x15D2 JUMP JUMPDEST SWAP2 POP PUSH2 0x14E1 DUP4 PUSH2 0x15D2 JUMP JUMPDEST SWAP3 POP DUP3 PUSH2 0x14F1 JUMPI PUSH2 0x14F0 PUSH2 0x160B JUMP JUMPDEST JUMPDEST DUP3 DUP3 DIV SWAP1 POP SWAP3 SWAP2 POP POP JUMP JUMPDEST PUSH1 0x0 PUSH2 0x1507 DUP3 PUSH2 0x15D2 JUMP JUMPDEST SWAP2 POP PUSH2 0x1512 DUP4 PUSH2 0x15D2 JUMP JUMPDEST SWAP3 POP DUP2 PUSH32 0xFFFFFFFFFFFFFFFFFFFFFFFFFFFFFFFFFFFFFFFFFFFFFFFFFFFFFFFFFFFFFFFF DIV DUP4 GT DUP3 ISZERO ISZERO AND ISZERO PUSH2 0x154B JUMPI PUSH2 0x154A PUSH2 0x15DC JUMP JUMPDEST JUMPDEST DUP3 DUP3 MUL SWAP1 POP SWAP3 SWAP2 POP POP JUMP JUMPDEST PUSH1 0x0 PUSH2 0x1561 DUP3 PUSH2 0x15D2 JUMP JUMPDEST SWAP2 POP PUSH2 0x156C DUP4 PUSH2 0x15D2 JUMP JUMPDEST SWAP3 POP DUP3 DUP3 LT ISZERO PUSH2 0x157F JUMPI PUSH2 0x157E PUSH2 0x15DC JUMP JUMPDEST JUMPDEST DUP3 DUP3 SUB SWAP1 POP SWAP3 SWAP2 POP POP JUMP JUMPDEST PUSH1 0x0 PUSH2 0x1595 DUP3 PUSH2 0x15B2 JUMP JUMPDEST SWAP1 POP SWAP2 SWAP1 POP JUMP JUMPDEST PUSH1 0x0 DUP2 ISZERO ISZERO SWAP1 POP SWAP2 SWAP1 POP JUMP JUMPDEST PUSH1 0x0 DUP2 SWAP1 POP SWAP2 SWAP1 POP JUMP JUMPDEST PUSH1 0x0 PUSH20 0xFFFFFFFFFFFFFFFFFFFFFFFFFFFFFFFFFFFFFFFF DUP3 AND SWAP1 POP SWAP2 SWAP1 POP JUMP JUMPDEST PUSH1 0x0 DUP2 SWAP1 POP SWAP2 SWAP1 POP JUMP JUMPDEST PUSH32 0x4E487B7100000000000000000000000000000000000000000000000000000000 PUSH1 0x0 MSTORE PUSH1 0x11 PUSH1 0x4 MSTORE PUSH1 0x24 PUSH1 0x0 REVERT JUMPDEST PUSH32 0x4E487B7100000000000000000000000000000000000000000000000000000000 PUSH1 0x0 MSTORE PUSH1 0x12 PUSH1 0x4 MSTORE PUSH1 0x24 PUSH1 0x0 REVERT JUMPDEST PUSH32 0x4F776E61626C653A206E6577206F776E657220697320746865207A65726F2061 PUSH1 0x0 DUP3 ADD MSTORE PUSH32 0x6464726573730000000000000000000000000000000000000000000000000000 PUSH1 0x20 DUP3 ADD MSTORE POP JUMP JUMPDEST PUSH32 0x547265617375727920616464726573732063616E6E6F74206265207A65726F20 PUSH1 0x0 DUP3 ADD MSTORE PUSH32 0x6164647265737300000000000000000000000000000000000000000000000000 PUSH1 0x20 DUP3 ADD MSTORE POP JUMP JUMPDEST PUSH32 0x496E73756666696369656E742062616C616E6365000000000000000000000000 PUSH1 0x0 DUP3 ADD MSTORE POP JUMP JUMPDEST PUSH32 0x43616E6E6F7420756E6C6F636B206265666F7265203220686F75727300000000 PUSH1 0x0 DUP3 ADD MSTORE POP JUMP JUMPDEST PUSH32 0x4F776E61626C653A2063616C6C6572206973206E6F7420746865206F776E6572 PUSH1 0x0 DUP3 ADD MSTORE POP JUMP JUMPDEST PUSH2 0x175C DUP2 PUSH2 0x158A JUMP JUMPDEST DUP2 EQ PUSH2 0x1767 JUMPI PUSH1 0x0 DUP1 REVERT JUMPDEST POP JUMP JUMPDEST PUSH2 0x1773 DUP2 PUSH2 0x159C JUMP JUMPDEST DUP2 EQ PUSH2 0x177E JUMPI PUSH1 0x0 DUP1 REVERT JUMPDEST POP JUMP JUMPDEST PUSH2 0x178A DUP2 PUSH2 0x15A8 JUMP JUMPDEST DUP2 EQ PUSH2 0x1795 JUMPI PUSH1 0x0 DUP1 REVERT JUMPDEST POP JUMP JUMPDEST PUSH2 0x17A1 DUP2 PUSH2 0x15D2 JUMP JUMPDEST DUP2 EQ PUSH2 0x17AC JUMPI PUSH1 0x0 DUP1 REVERT JUMPDEST POP JUMP INVALID LOG2 PUSH5 0x6970667358 0x22 SLT KECCAK256 0xEA SWAP1 PUSH8 0x45E1B44B86F262D9 PUSH2 0x714F 0x2C 0x1E CALLDATASIZE 0xB8 0xEA 0x26 0xA8 SWAP7 EXTCODESIZE DUP5 LOG2 MLOAD SWAP8 0x48 0x5F EXP BLOCKHASH 0x2A PUSH5 0x736F6C6343 STOP ADDMOD DIV STOP CALLER "
        },
        "methodIdentifiers": {
          "c_0x47172d1f(bytes32)": "d9f693a1",
          "collectFee()": "d4d5d32a",
          "owner()": "8da5cb5b",
          "renounceOwnership()": "715018a6",
          "setTreasury(address)": "f0f44260",
          "stake(uint256)": "a694fc3a",
          "totalFee()": "1df4ccfc",
          "transferOwnership(address)": "f2fde38b",
          "treasury()": "61d027b3",
          "withdraw(uint256)": "2e1a7d4d"
        }
      }
    }
  }
}