{
  "_format": "hh-sol-artifact-1",
  "contractName": "Stake",
  "sourceName": "contracts/Stake.sol",
  "abi": [
    {
      "inputs": [
        {
          "internalType": "address",
          "name": "_addr",
          "type": "address"
        }
      ],
      "stateMutability": "nonpayable",
      "type": "constructor"
    },
    {
      "anonymous": false,
      "inputs": [
        {
          "indexed": true,
          "internalType": "address",
          "name": "previousOwner",
          "type": "address"
        },
        {
          "indexed": true,
          "internalType": "address",
          "name": "newOwner",
          "type": "address"
        }
      ],
      "name": "OwnershipTransferred",
      "type": "event"
    },
    {
      "inputs": [],
      "name": "collectFee",
      "outputs": [],
      "stateMutability": "nonpayable",
      "type": "function"
    },
    {
      "inputs": [],
      "name": "owner",
      "outputs": [
        {
          "internalType": "address",
          "name": "",
          "type": "address"
        }
      ],
      "stateMutability": "view",
      "type": "function"
    },
    {
      "inputs": [],
      "name": "renounceOwnership",
      "outputs": [],
      "stateMutability": "nonpayable",
      "type": "function"
    },
    {
      "inputs": [
        {
          "internalType": "address",
          "name": "_addr",
          "type": "address"
        }
      ],
      "name": "setTreasury",
      "outputs": [],
      "stateMutability": "nonpayable",
      "type": "function"
    },
    {
      "inputs": [
        {
          "internalType": "uint256",
          "name": "_amount",
          "type": "uint256"
        }
      ],
      "name": "stake",
      "outputs": [],
      "stateMutability": "nonpayable",
      "type": "function"
    },
    {
      "inputs": [],
      "name": "totalFee",
      "outputs": [
        {
          "internalType": "uint256",
          "name": "",
          "type": "uint256"
        }
      ],
      "stateMutability": "view",
      "type": "function"
    },
    {
      "inputs": [
        {
          "internalType": "address",
          "name": "newOwner",
          "type": "address"
        }
      ],
      "name": "transferOwnership",
      "outputs": [],
      "stateMutability": "nonpayable",
      "type": "function"
    },
    {
      "inputs": [],
      "name": "treasury",
      "outputs": [
        {
          "internalType": "address",
          "name": "",
          "type": "address"
        }
      ],
      "stateMutability": "view",
      "type": "function"
    },
    {
      "inputs": [
        {
          "internalType": "uint256",
          "name": "_amount",
          "type": "uint256"
        }
      ],
      "name": "withdraw",
      "outputs": [],
      "stateMutability": "nonpayable",
      "type": "function"
    }
  ],
  "bytecode": "0x60806040523480156200001157600080fd5b506040516200126e3803806200126e833981810160405281019062000037919062000182565b620000576200004b6200009f60201b60201c565b620000a760201b60201c565b80600160006101000a81548173ffffffffffffffffffffffffffffffffffffffff021916908373ffffffffffffffffffffffffffffffffffffffff16021790555050620001fc565b600033905090565b60008060009054906101000a900473ffffffffffffffffffffffffffffffffffffffff169050816000806101000a81548173ffffffffffffffffffffffffffffffffffffffff021916908373ffffffffffffffffffffffffffffffffffffffff1602179055508173ffffffffffffffffffffffffffffffffffffffff168173ffffffffffffffffffffffffffffffffffffffff167f8be0079c531659141344cd1fd0a4f28419497f9722a3daafe3b4186f6b6457e060405160405180910390a35050565b6000815190506200017c81620001e2565b92915050565b6000602082840312156200019557600080fd5b6000620001a5848285016200016b565b91505092915050565b6000620001bb82620001c2565b9050919050565b600073ffffffffffffffffffffffffffffffffffffffff82169050919050565b620001ed81620001ae565b8114620001f957600080fd5b50565b611062806200020c6000396000f3fe608060405234801561001057600080fd5b50600436106100935760003560e01c80638da5cb5b116100665780638da5cb5b146100fa578063a694fc3a14610118578063d4d5d32a14610134578063f0f442601461013e578063f2fde38b1461015a57610093565b80631df4ccfc146100985780632e1a7d4d146100b657806361d027b3146100d2578063715018a6146100f0575b600080fd5b6100a0610176565b6040516100ad9190610ce7565b60405180910390f35b6100d060048036038101906100cb9190610ad6565b61017c565b005b6100da610396565b6040516100e79190610bcc565b60405180910390f35b6100f86103bc565b005b610102610444565b60405161010f9190610bcc565b60405180910390f35b610132600480360381019061012d9190610ad6565b61046d565b005b61013c6105ff565b005b61015860048036038101906101539190610a84565b610751565b005b610174600480360381019061016f9190610a84565b610881565b005b60055481565b600260003373ffffffffffffffffffffffffffffffffffffffff1673ffffffffffffffffffffffffffffffffffffffff168152602001908152602001600020548111156101fe576040517f08c379a00000000000000000000000000000000000000000000000000000000081526004016101f590610c87565b60405180910390fd5b611c20600360003373ffffffffffffffffffffffffffffffffffffffff1673ffffffffffffffffffffffffffffffffffffffff168152602001908152602001600020544261024c9190610df4565b101561028d576040517f08c379a000000000000000000000000000000000000000000000000000000000815260040161028490610ca7565b60405180910390fd5b80600260003373ffffffffffffffffffffffffffffffffffffffff1673ffffffffffffffffffffffffffffffffffffffff16815260200190815260200160002060008282546102dc9190610df4565b92505081905550600160009054906101000a900473ffffffffffffffffffffffffffffffffffffffff1673ffffffffffffffffffffffffffffffffffffffff1663a9059cbb33836040518363ffffffff1660e01b8152600401610340929190610c1e565b602060405180830381600087803b15801561035a57600080fd5b505af115801561036e573d6000803e3d6000fd5b505050506040513d601f19601f820116820180604052508101906103929190610aad565b5050565b600460009054906101000a900473ffffffffffffffffffffffffffffffffffffffff1681565b6103c4610979565b73ffffffffffffffffffffffffffffffffffffffff166103e2610444565b73ffffffffffffffffffffffffffffffffffffffff1614610438576040517f08c379a000000000000000000000000000000000000000000000000000000000815260040161042f90610cc7565b60405180910390fd5b6104426000610981565b565b60008060009054906101000a900473ffffffffffffffffffffffffffffffffffffffff16905090565b60006103e860028361047f9190610d9a565b6104899190610d69565b9050806005600082825461049d9190610d13565b9250508190555042600360003373ffffffffffffffffffffffffffffffffffffffff1673ffffffffffffffffffffffffffffffffffffffff1681526020019081526020016000208190555080826104f49190610df4565b600260003373ffffffffffffffffffffffffffffffffffffffff1673ffffffffffffffffffffffffffffffffffffffff16815260200190815260200160002060008282546105429190610d13565b92505081905550600160009054906101000a900473ffffffffffffffffffffffffffffffffffffffff1673ffffffffffffffffffffffffffffffffffffffff166323b872dd3330856040518463ffffffff1660e01b81526004016105a893929190610be7565b602060405180830381600087803b1580156105c257600080fd5b505af11580156105d6573d6000803e3d6000fd5b505050506040513d601f19601f820116820180604052508101906105fa9190610aad565b505050565b610607610979565b73ffffffffffffffffffffffffffffffffffffffff16610625610444565b73ffffffffffffffffffffffffffffffffffffffff161461067b576040517f08c379a000000000000000000000000000000000000000000000000000000000815260040161067290610cc7565b60405180910390fd5b600160009054906101000a900473ffffffffffffffffffffffffffffffffffffffff1673ffffffffffffffffffffffffffffffffffffffff1663a9059cbb600460009054906101000a900473ffffffffffffffffffffffffffffffffffffffff166005546040518363ffffffff1660e01b81526004016106fc929190610c1e565b602060405180830381600087803b15801561071657600080fd5b505af115801561072a573d6000803e3d6000fd5b505050506040513d601f19601f8201168201806040525081019061074e9190610aad565b50565b610759610979565b73ffffffffffffffffffffffffffffffffffffffff16610777610444565b73ffffffffffffffffffffffffffffffffffffffff16146107cd576040517f08c379a00000000000000000000000000000000000000000000000000000000081526004016107c490610cc7565b60405180910390fd5b600073ffffffffffffffffffffffffffffffffffffffff168173ffffffffffffffffffffffffffffffffffffffff16141561083d576040517f08c379a000000000000000000000000000000000000000000000000000000000815260040161083490610c67565b60405180910390fd5b80600460006101000a81548173ffffffffffffffffffffffffffffffffffffffff021916908373ffffffffffffffffffffffffffffffffffffffff16021790555050565b610889610979565b73ffffffffffffffffffffffffffffffffffffffff166108a7610444565b73ffffffffffffffffffffffffffffffffffffffff16146108fd576040517f08c379a00000000000000000000000000000000000000000000000000000000081526004016108f490610cc7565b60405180910390fd5b600073ffffffffffffffffffffffffffffffffffffffff168173ffffffffffffffffffffffffffffffffffffffff16141561096d576040517f08c379a000000000000000000000000000000000000000000000000000000000815260040161096490610c47565b60405180910390fd5b61097681610981565b50565b600033905090565b60008060009054906101000a900473ffffffffffffffffffffffffffffffffffffffff169050816000806101000a81548173ffffffffffffffffffffffffffffffffffffffff021916908373ffffffffffffffffffffffffffffffffffffffff1602179055508173ffffffffffffffffffffffffffffffffffffffff168173ffffffffffffffffffffffffffffffffffffffff167f8be0079c531659141344cd1fd0a4f28419497f9722a3daafe3b4186f6b6457e060405160405180910390a35050565b600081359050610a5481610fe7565b92915050565b600081519050610a6981610ffe565b92915050565b600081359050610a7e81611015565b92915050565b600060208284031215610a9657600080fd5b6000610aa484828501610a45565b91505092915050565b600060208284031215610abf57600080fd5b6000610acd84828501610a5a565b91505092915050565b600060208284031215610ae857600080fd5b6000610af684828501610a6f565b91505092915050565b610b0881610e28565b82525050565b6000610b1b602683610d02565b9150610b2682610ece565b604082019050919050565b6000610b3e602783610d02565b9150610b4982610f1d565b604082019050919050565b6000610b61601483610d02565b9150610b6c82610f6c565b602082019050919050565b6000610b84601c83610d02565b9150610b8f82610f95565b602082019050919050565b6000610ba7602083610d02565b9150610bb282610fbe565b602082019050919050565b610bc681610e66565b82525050565b6000602082019050610be16000830184610aff565b92915050565b6000606082019050610bfc6000830186610aff565b610c096020830185610aff565b610c166040830184610bbd565b949350505050565b6000604082019050610c336000830185610aff565b610c406020830184610bbd565b9392505050565b60006020820190508181036000830152610c6081610b0e565b9050919050565b60006020820190508181036000830152610c8081610b31565b9050919050565b60006020820190508181036000830152610ca081610b54565b9050919050565b60006020820190508181036000830152610cc081610b77565b9050919050565b60006020820190508181036000830152610ce081610b9a565b9050919050565b6000602082019050610cfc6000830184610bbd565b92915050565b600082825260208201905092915050565b6000610d1e82610e66565b9150610d2983610e66565b9250827fffffffffffffffffffffffffffffffffffffffffffffffffffffffffffffffff03821115610d5e57610d5d610e70565b5b828201905092915050565b6000610d7482610e66565b9150610d7f83610e66565b925082610d8f57610d8e610e9f565b5b828204905092915050565b6000610da582610e66565b9150610db083610e66565b9250817fffffffffffffffffffffffffffffffffffffffffffffffffffffffffffffffff0483118215151615610de957610de8610e70565b5b828202905092915050565b6000610dff82610e66565b9150610e0a83610e66565b925082821015610e1d57610e1c610e70565b5b828203905092915050565b6000610e3382610e46565b9050919050565b60008115159050919050565b600073ffffffffffffffffffffffffffffffffffffffff82169050919050565b6000819050919050565b7f4e487b7100000000000000000000000000000000000000000000000000000000600052601160045260246000fd5b7f4e487b7100000000000000000000000000000000000000000000000000000000600052601260045260246000fd5b7f4f776e61626c653a206e6577206f776e657220697320746865207a65726f206160008201527f6464726573730000000000000000000000000000000000000000000000000000602082015250565b7f547265617375727920616464726573732063616e6e6f74206265207a65726f2060008201527f6164647265737300000000000000000000000000000000000000000000000000602082015250565b7f496e73756666696369656e742062616c616e6365000000000000000000000000600082015250565b7f43616e6e6f7420756e6c6f636b206265666f7265203220686f75727300000000600082015250565b7f4f776e61626c653a2063616c6c6572206973206e6f7420746865206f776e6572600082015250565b610ff081610e28565b8114610ffb57600080fd5b50565b61100781610e3a565b811461101257600080fd5b50565b61101e81610e66565b811461102957600080fd5b5056fea264697066735822122074d038c9e20299689ec397395fb2ca068ef87bf49055442ebbbcf22accc30de564736f6c63430008040033",
  "linkReferences": {},
  "deployedLinkReferences": {}
}