{
  "_format": "hh-sol-artifact-1",
  "contractName": "Stake",
  "sourceName": "contracts/Stake.sol",
  "abi": [
    {
      "inputs": [
        {
          "internalType": "address",
          "name": "_addr",
          "type": "address"
        }
      ],
      "stateMutability": "nonpayable",
      "type": "constructor"
    },
    {
      "anonymous": false,
      "inputs": [
        {
          "indexed": true,
          "internalType": "address",
          "name": "previousOwner",
          "type": "address"
        },
        {
          "indexed": true,
          "internalType": "address",
          "name": "newOwner",
          "type": "address"
        }
      ],
      "name": "OwnershipTransferred",
      "type": "event"
    },
    {
      "anonymous": false,
      "inputs": [
        {
          "indexed": false,
          "internalType": "address",
          "name": "",
          "type": "address"
        },
        {
          "indexed": false,
          "internalType": "uint256",
          "name": "",
          "type": "uint256"
        }
      ],
      "name": "StakeEvent",
      "type": "event"
    },
    {
      "anonymous": false,
      "inputs": [
        {
          "indexed": false,
          "internalType": "address",
          "name": "",
          "type": "address"
        },
        {
          "indexed": false,
          "internalType": "uint256",
          "name": "",
          "type": "uint256"
        }
      ],
      "name": "WithdrawEvent",
      "type": "event"
    },
    {
      "inputs": [
        {
          "internalType": "bytes32",
          "name": "c__0x47172d1f",
          "type": "bytes32"
        }
      ],
      "name": "c_0x47172d1f",
      "outputs": [],
      "stateMutability": "pure",
      "type": "function"
    },
    {
      "inputs": [],
      "name": "collectFee",
      "outputs": [],
      "stateMutability": "nonpayable",
      "type": "function"
    },
    {
      "inputs": [],
      "name": "owner",
      "outputs": [
        {
          "internalType": "address",
          "name": "",
          "type": "address"
        }
      ],
      "stateMutability": "view",
      "type": "function"
    },
    {
      "inputs": [],
      "name": "renounceOwnership",
      "outputs": [],
      "stateMutability": "nonpayable",
      "type": "function"
    },
    {
      "inputs": [
        {
          "internalType": "address",
          "name": "_addr",
          "type": "address"
        }
      ],
      "name": "setTreasury",
      "outputs": [],
      "stateMutability": "nonpayable",
      "type": "function"
    },
    {
      "inputs": [
        {
          "internalType": "uint256",
          "name": "_amount",
          "type": "uint256"
        }
      ],
      "name": "stake",
      "outputs": [],
      "stateMutability": "nonpayable",
      "type": "function"
    },
    {
      "inputs": [],
      "name": "totalFee",
      "outputs": [
        {
          "internalType": "uint256",
          "name": "",
          "type": "uint256"
        }
      ],
      "stateMutability": "view",
      "type": "function"
    },
    {
      "inputs": [
        {
          "internalType": "address",
          "name": "newOwner",
          "type": "address"
        }
      ],
      "name": "transferOwnership",
      "outputs": [],
      "stateMutability": "nonpayable",
      "type": "function"
    },
    {
      "inputs": [],
      "name": "treasury",
      "outputs": [
        {
          "internalType": "address",
          "name": "",
          "type": "address"
        }
      ],
      "stateMutability": "view",
      "type": "function"
    },
    {
      "inputs": [
        {
          "internalType": "uint256",
          "name": "_amount",
          "type": "uint256"
        }
      ],
      "name": "withdraw",
      "outputs": [],
      "stateMutability": "nonpayable",
      "type": "function"
    }
  ],
  "bytecode": "0x60806040523480156200001157600080fd5b5060405162001a9038038062001a90833981810160405281019062000037919062000221565b620000576200004b6200013b60201b60201c565b6200014360201b60201c565b6200008b7fee51821fb08f06eaec0b13d3bcb56848ce555d3dda13c9a77277b6c6d6fa6e1d60001b6200020760201b60201c565b620000bf7fe9827e468dff0fcfa1bdb2dcd4e23d4adb76a73d2524cb4a11bd39f040fbcd7360001b6200020760201b60201c565b620000f37fa3660f82f95c5b797c4c8d32b605ffc6bac73bffba24dc5c780a2aab1d41b91860001b6200020760201b60201c565b80600160006101000a81548173ffffffffffffffffffffffffffffffffffffffff021916908373ffffffffffffffffffffffffffffffffffffffff160217905550506200029b565b600033905090565b60008060009054906101000a900473ffffffffffffffffffffffffffffffffffffffff169050816000806101000a81548173ffffffffffffffffffffffffffffffffffffffff021916908373ffffffffffffffffffffffffffffffffffffffff1602179055508173ffffffffffffffffffffffffffffffffffffffff168173ffffffffffffffffffffffffffffffffffffffff167f8be0079c531659141344cd1fd0a4f28419497f9722a3daafe3b4186f6b6457e060405160405180910390a35050565b50565b6000815190506200021b8162000281565b92915050565b6000602082840312156200023457600080fd5b600062000244848285016200020a565b91505092915050565b60006200025a8262000261565b9050919050565b600073ffffffffffffffffffffffffffffffffffffffff82169050919050565b6200028c816200024d565b81146200029857600080fd5b50565b6117e580620002ab6000396000f3fe608060405234801561001057600080fd5b506004361061009e5760003560e01c8063a694fc3a11610066578063a694fc3a14610123578063d4d5d32a1461013f578063d9f693a114610149578063f0f4426014610165578063f2fde38b146101815761009e565b80631df4ccfc146100a35780632e1a7d4d146100c157806361d027b3146100dd578063715018a6146100fb5780638da5cb5b14610105575b600080fd5b6100ab61019d565b6040516100b89190611449565b60405180910390f35b6100db60048036038101906100d69190611238565b6101a3565b005b6100e561068a565b6040516100f2919061132e565b60405180910390f35b6101036106b0565b005b61010d610738565b60405161011a919061132e565b60405180910390f35b61013d60048036038101906101389190611238565b610761565b005b610147610b68565b005b610163600480360381019061015e919061120f565b610d3e565b005b61017f600480360381019061017a91906111bd565b610d41565b005b61019b600480360381019061019691906111bd565b610fa5565b005b60055481565b6101cf7f23d83f960d43ed63675866b08081cdd5f7e5391a96a624b5f69717d16c2b1ca360001b610d3e565b6101fb7faa7fd2b8cbb1b4dcb5ed97297d3c44eaf4e74feb5a04754e832e7d7f0a90da9560001b610d3e565b6102277fb923d378c9c75b21c98aac5ea4df43ade02330c929745102b14ec8a0576571e760001b610d3e565b6102537ff6e86880bb41eeff3a8143d02e7ff8e13f80e1def662b9390e617183c75e097f60001b610d3e565b600260003373ffffffffffffffffffffffffffffffffffffffff1673ffffffffffffffffffffffffffffffffffffffff168152602001908152602001600020548111156102d5576040517f08c379a00000000000000000000000000000000000000000000000000000000081526004016102cc906113e9565b60405180910390fd5b6103017f5bf0e97c916f870142c85ad89ac8a9a36fdc045fcbc9192da0968232c804c3cd60001b610d3e565b61032d7f8672d46b315005a101625c306647ebdbdbd142186c1cbcf03da6aa98168c5f7560001b610d3e565b6103597fc4285315530d7ae46e2e74714923b941058d386ede2c877b4f45cbd424d1bd5c60001b610d3e565b6103857f9100f3ddd123ca9d6d5ab3bc719278f6dc683a5747c81b71a9bebda8e83f8b9b60001b610d3e565b611c20600360003373ffffffffffffffffffffffffffffffffffffffff1673ffffffffffffffffffffffffffffffffffffffff16815260200190815260200160002054426103d39190611556565b1015610414576040517f08c379a000000000000000000000000000000000000000000000000000000000815260040161040b90611409565b60405180910390fd5b6104407fb02663e93e626c249e14a1cc30622834644f9667c117473d401b655d4d02621460001b610d3e565b61046c7f5de0a758e374c0c52dcb172d23e725e60a61d593d554e8002a5b39aed4b1960a60001b610d3e565b6104987f754707468ed437bb5aafa7ad706a4f4c42d568d49a54a145d3ca89cc7e8c2fb160001b610d3e565b80600260003373ffffffffffffffffffffffffffffffffffffffff1673ffffffffffffffffffffffffffffffffffffffff16815260200190815260200160002060008282546104e79190611556565b9250508190555061051a7f4a46d5c3018fad0c333c80d41de6cceb8cd70e92cc167efe7752a58b6fc8afd260001b610d3e565b6105467fd46082c3a4dbe86155cc9ed86b4d71217cc6161bb979f66c58ce0f7dfcac554760001b610d3e565b600160009054906101000a900473ffffffffffffffffffffffffffffffffffffffff1673ffffffffffffffffffffffffffffffffffffffff1663a9059cbb33836040518363ffffffff1660e01b81526004016105a3929190611380565b602060405180830381600087803b1580156105bd57600080fd5b505af11580156105d1573d6000803e3d6000fd5b505050506040513d601f19601f820116820180604052508101906105f591906111e6565b506106227f16429420558821d5a3137afc7bfee3c33e0797181d12470cabd7a05589bdaeaa60001b610d3e565b61064e7fd97776b1b97b02db840ffed0a2c26f6180a37c9add3eefbc24baa4132040360060001b610d3e565b7f5dba113b49cfa7c90315e8e604e6b506f7abcb909b01dcb19ec39005086e68fc338260405161067f929190611380565b60405180910390a150565b600460009054906101000a900473ffffffffffffffffffffffffffffffffffffffff1681565b6106b861109d565b73ffffffffffffffffffffffffffffffffffffffff166106d6610738565b73ffffffffffffffffffffffffffffffffffffffff161461072c576040517f08c379a000000000000000000000000000000000000000000000000000000000815260040161072390611429565b60405180910390fd5b61073660006110a5565b565b60008060009054906101000a900473ffffffffffffffffffffffffffffffffffffffff16905090565b61078d7fd471517ab783f9a1bcc5d793aa4325eff2c6eb52fef62a02a0d6e9bf835dcb5760001b610d3e565b6107b97f7b2d2d1687edacd27e9d1593acd4e89d15c790272198afc9999365eecfce9b4b60001b610d3e565b6107e57fa08eb4af85089e832650e1ee89502afbdb064cb05503e688e163d9f69e2eb6c260001b610d3e565b60006103e86002836107f791906114fc565b61080191906114cb565b905061082f7f233c1a7740b7d18929c9c5836ab364e300d4551cb05992162af434a8ce86eec060001b610d3e565b61085b7f50bf91c24f46be4f3a8d51a0b2addf63454d29d6c208fe57d70dda6f5472d90660001b610d3e565b806005600082825461086d9190611475565b925050819055506108a07f06377bd3f7902c61ad8f46d7e9fbfd9315b7db7cea1ea17804b3592b55aeea8c60001b610d3e565b6108cc7f2d39dcb8679ee4fbd113811ba9f626710554db4457cb66ff7809d16ab9a38e9360001b610d3e565b42600360003373ffffffffffffffffffffffffffffffffffffffff1673ffffffffffffffffffffffffffffffffffffffff1681526020019081526020016000208190555061093c7f6fe1b3d9fded505425a70413ef3415091dc401f93c94fc8c1819a1bb9da0211c60001b610d3e565b6109687f2f6f9b8e06100eb23b39b74f8f95be2aa73340913575494eb8cc1cc3634ba4a560001b610d3e565b80826109749190611556565b600260003373ffffffffffffffffffffffffffffffffffffffff1673ffffffffffffffffffffffffffffffffffffffff16815260200190815260200160002060008282546109c29190611475565b925050819055506109f57fe8a83e53b424a6d437346cb054567dbcb5569750be561eb673b4fa1b3267b6d060001b610d3e565b610a217f33a0a09d85a6baddcea720dc133d9e4deaadfd5e5a50b7645936c3154c7d7ac060001b610d3e565b600160009054906101000a900473ffffffffffffffffffffffffffffffffffffffff1673ffffffffffffffffffffffffffffffffffffffff166323b872dd3330856040518463ffffffff1660e01b8152600401610a8093929190611349565b602060405180830381600087803b158015610a9a57600080fd5b505af1158015610aae573d6000803e3d6000fd5b505050506040513d601f19601f82011682018060405250810190610ad291906111e6565b50610aff7fa7957c6005a6885a019336b2bf64c2c68eedbfe9035b20e4768153798d56265c60001b610d3e565b610b2b7f72bb212b0f7d898221529cd90aa143c2ad8483776b37e272f5fc6f381281c63c60001b610d3e565b7fb58845b0a64f92dd8d1ba04f905319d6be2021b57783b3d10155e7e36a84e1283383604051610b5c929190611380565b60405180910390a15050565b610b7061109d565b73ffffffffffffffffffffffffffffffffffffffff16610b8e610738565b73ffffffffffffffffffffffffffffffffffffffff1614610be4576040517f08c379a0000000000000000000000000000000000000000000000000000000008152600401610bdb90611429565b60405180910390fd5b610c107f2b30f971d93193e7ec44378cfc25e32bbf62c7fae810649795ee59109dbc90cf60001b610d3e565b610c3c7fa01de16b901264c5ed851f7029000320346a43eb796ced7a2607aacfa0fc6e9660001b610d3e565b610c687fc0a27b29067c81be0945dfed33cfa36608d848a040381e0f115e02f8bda9c66160001b610d3e565b600160009054906101000a900473ffffffffffffffffffffffffffffffffffffffff1673ffffffffffffffffffffffffffffffffffffffff1663a9059cbb600460009054906101000a900473ffffffffffffffffffffffffffffffffffffffff166005546040518363ffffffff1660e01b8152600401610ce9929190611380565b602060405180830381600087803b158015610d0357600080fd5b505af1158015610d17573d6000803e3d6000fd5b505050506040513d601f19601f82011682018060405250810190610d3b91906111e6565b50565b50565b610d4961109d565b73ffffffffffffffffffffffffffffffffffffffff16610d67610738565b73ffffffffffffffffffffffffffffffffffffffff1614610dbd576040517f08c379a0000000000000000000000000000000000000000000000000000000008152600401610db490611429565b60405180910390fd5b610de97fa67157f2abf0c7a326930397be4b61f61516c42735f36ef02980ad0e7f4d7af460001b610d3e565b610e157f8ab288e800f11d729d240843c656378573e55629a619371dc07c38f33e9a142b60001b610d3e565b610e417f637a24ff3562b2db39293880f6385f0de441e91a68c39f90bfc0edb2477cac4760001b610d3e565b610e6d7fd1f431d1bbce0e98ab0b7ddd38d43e669de71112b861ec733dbb625a150dd0d460001b610d3e565b600073ffffffffffffffffffffffffffffffffffffffff168173ffffffffffffffffffffffffffffffffffffffff161415610edd576040517f08c379a0000000000000000000000000000000000000000000000000000000008152600401610ed4906113c9565b60405180910390fd5b610f097f830022a9251757f5993636aa4922ab2605b08e7567bfe345cf33c7603e73eb1760001b610d3e565b610f357f4f05b0dacab3e3435443ac808dc4356bc5b4c97ab405d38b2ab7fc0d24e782af60001b610d3e565b610f617fd35abb2547751c217255036125c654d1c7fa3d4233c266cd9fcb4e61a44ed15560001b610d3e565b80600460006101000a81548173ffffffffffffffffffffffffffffffffffffffff021916908373ffffffffffffffffffffffffffffffffffffffff16021790555050565b610fad61109d565b73ffffffffffffffffffffffffffffffffffffffff16610fcb610738565b73ffffffffffffffffffffffffffffffffffffffff1614611021576040517f08c379a000000000000000000000000000000000000000000000000000000000815260040161101890611429565b60405180910390fd5b600073ffffffffffffffffffffffffffffffffffffffff168173ffffffffffffffffffffffffffffffffffffffff161415611091576040517f08c379a0000000000000000000000000000000000000000000000000000000008152600401611088906113a9565b60405180910390fd5b61109a816110a5565b50565b600033905090565b60008060009054906101000a900473ffffffffffffffffffffffffffffffffffffffff169050816000806101000a81548173ffffffffffffffffffffffffffffffffffffffff021916908373ffffffffffffffffffffffffffffffffffffffff1602179055508173ffffffffffffffffffffffffffffffffffffffff168173ffffffffffffffffffffffffffffffffffffffff167f8be0079c531659141344cd1fd0a4f28419497f9722a3daafe3b4186f6b6457e060405160405180910390a35050565b60008135905061117881611753565b92915050565b60008151905061118d8161176a565b92915050565b6000813590506111a281611781565b92915050565b6000813590506111b781611798565b92915050565b6000602082840312156111cf57600080fd5b60006111dd84828501611169565b91505092915050565b6000602082840312156111f857600080fd5b60006112068482850161117e565b91505092915050565b60006020828403121561122157600080fd5b600061122f84828501611193565b91505092915050565b60006020828403121561124a57600080fd5b6000611258848285016111a8565b91505092915050565b61126a8161158a565b82525050565b600061127d602683611464565b91506112888261163a565b604082019050919050565b60006112a0602783611464565b91506112ab82611689565b604082019050919050565b60006112c3601483611464565b91506112ce826116d8565b602082019050919050565b60006112e6601c83611464565b91506112f182611701565b602082019050919050565b6000611309602083611464565b91506113148261172a565b602082019050919050565b611328816115d2565b82525050565b60006020820190506113436000830184611261565b92915050565b600060608201905061135e6000830186611261565b61136b6020830185611261565b611378604083018461131f565b949350505050565b60006040820190506113956000830185611261565b6113a2602083018461131f565b9392505050565b600060208201905081810360008301526113c281611270565b9050919050565b600060208201905081810360008301526113e281611293565b9050919050565b60006020820190508181036000830152611402816112b6565b9050919050565b60006020820190508181036000830152611422816112d9565b9050919050565b60006020820190508181036000830152611442816112fc565b9050919050565b600060208201905061145e600083018461131f565b92915050565b600082825260208201905092915050565b6000611480826115d2565b915061148b836115d2565b9250827fffffffffffffffffffffffffffffffffffffffffffffffffffffffffffffffff038211156114c0576114bf6115dc565b5b828201905092915050565b60006114d6826115d2565b91506114e1836115d2565b9250826114f1576114f061160b565b5b828204905092915050565b6000611507826115d2565b9150611512836115d2565b9250817fffffffffffffffffffffffffffffffffffffffffffffffffffffffffffffffff048311821515161561154b5761154a6115dc565b5b828202905092915050565b6000611561826115d2565b915061156c836115d2565b92508282101561157f5761157e6115dc565b5b828203905092915050565b6000611595826115b2565b9050919050565b60008115159050919050565b6000819050919050565b600073ffffffffffffffffffffffffffffffffffffffff82169050919050565b6000819050919050565b7f4e487b7100000000000000000000000000000000000000000000000000000000600052601160045260246000fd5b7f4e487b7100000000000000000000000000000000000000000000000000000000600052601260045260246000fd5b7f4f776e61626c653a206e6577206f776e657220697320746865207a65726f206160008201527f6464726573730000000000000000000000000000000000000000000000000000602082015250565b7f547265617375727920616464726573732063616e6e6f74206265207a65726f2060008201527f6164647265737300000000000000000000000000000000000000000000000000602082015250565b7f496e73756666696369656e742062616c616e6365000000000000000000000000600082015250565b7f43616e6e6f7420756e6c6f636b206265666f7265203220686f75727300000000600082015250565b7f4f776e61626c653a2063616c6c6572206973206e6f7420746865206f776e6572600082015250565b61175c8161158a565b811461176757600080fd5b50565b6117738161159c565b811461177e57600080fd5b50565b61178a816115a8565b811461179557600080fd5b50565b6117a1816115d2565b81146117ac57600080fd5b5056fea2646970667358221220ea906745e1b44b86f262d961714f2c1e36b8ea26a8963b84a25197485f0a402a64736f6c63430008040033",
  "linkReferences": {},
  "deployedLinkReferences": {}
}