{
  "_format": "hh-sol-artifact-1",
  "contractName": "Stake",
  "sourceName": "contracts/Stake.sol",
  "abi": [
    {
      "inputs": [
        {
          "internalType": "address",
          "name": "_addr",
          "type": "address"
        }
      ],
      "stateMutability": "nonpayable",
      "type": "constructor"
    },
    {
      "anonymous": false,
      "inputs": [
        {
          "indexed": true,
          "internalType": "address",
          "name": "previousOwner",
          "type": "address"
        },
        {
          "indexed": true,
          "internalType": "address",
          "name": "newOwner",
          "type": "address"
        }
      ],
      "name": "OwnershipTransferred",
      "type": "event"
    },
    {
      "anonymous": false,
      "inputs": [
        {
          "indexed": false,
          "internalType": "address",
          "name": "",
          "type": "address"
        },
        {
          "indexed": false,
          "internalType": "uint256",
          "name": "",
          "type": "uint256"
        }
      ],
      "name": "StakeEvent",
      "type": "event"
    },
    {
      "anonymous": false,
      "inputs": [
        {
          "indexed": false,
          "internalType": "address",
          "name": "",
          "type": "address"
        },
        {
          "indexed": false,
          "internalType": "uint256",
          "name": "",
          "type": "uint256"
        }
      ],
      "name": "WithdrawEvent",
      "type": "event"
    },
    {
      "inputs": [],
      "name": "collectFee",
      "outputs": [],
      "stateMutability": "nonpayable",
      "type": "function"
    },
    {
      "inputs": [],
      "name": "owner",
      "outputs": [
        {
          "internalType": "address",
          "name": "",
          "type": "address"
        }
      ],
      "stateMutability": "view",
      "type": "function"
    },
    {
      "inputs": [],
      "name": "renounceOwnership",
      "outputs": [],
      "stateMutability": "nonpayable",
      "type": "function"
    },
    {
      "inputs": [
        {
          "internalType": "address",
          "name": "_addr",
          "type": "address"
        }
      ],
      "name": "setTreasury",
      "outputs": [],
      "stateMutability": "nonpayable",
      "type": "function"
    },
    {
      "inputs": [
        {
          "internalType": "uint256",
          "name": "_amount",
          "type": "uint256"
        }
      ],
      "name": "stake",
      "outputs": [],
      "stateMutability": "nonpayable",
      "type": "function"
    },
    {
      "inputs": [],
      "name": "totalFee",
      "outputs": [
        {
          "internalType": "uint256",
          "name": "",
          "type": "uint256"
        }
      ],
      "stateMutability": "view",
      "type": "function"
    },
    {
      "inputs": [
        {
          "internalType": "address",
          "name": "newOwner",
          "type": "address"
        }
      ],
      "name": "transferOwnership",
      "outputs": [],
      "stateMutability": "nonpayable",
      "type": "function"
    },
    {
      "inputs": [],
      "name": "treasury",
      "outputs": [
        {
          "internalType": "address",
          "name": "",
          "type": "address"
        }
      ],
      "stateMutability": "view",
      "type": "function"
    },
    {
      "inputs": [
        {
          "internalType": "uint256",
          "name": "_amount",
          "type": "uint256"
        }
      ],
      "name": "withdraw",
      "outputs": [],
      "stateMutability": "nonpayable",
      "type": "function"
    }
  ],
  "bytecode": "0x60806040523480156200001157600080fd5b50604051620012e0380380620012e0833981810160405281019062000037919062000182565b620000576200004b6200009f60201b60201c565b620000a760201b60201c565b80600160006101000a81548173ffffffffffffffffffffffffffffffffffffffff021916908373ffffffffffffffffffffffffffffffffffffffff16021790555050620001fc565b600033905090565b60008060009054906101000a900473ffffffffffffffffffffffffffffffffffffffff169050816000806101000a81548173ffffffffffffffffffffffffffffffffffffffff021916908373ffffffffffffffffffffffffffffffffffffffff1602179055508173ffffffffffffffffffffffffffffffffffffffff168173ffffffffffffffffffffffffffffffffffffffff167f8be0079c531659141344cd1fd0a4f28419497f9722a3daafe3b4186f6b6457e060405160405180910390a35050565b6000815190506200017c81620001e2565b92915050565b6000602082840312156200019557600080fd5b6000620001a5848285016200016b565b91505092915050565b6000620001bb82620001c2565b9050919050565b600073ffffffffffffffffffffffffffffffffffffffff82169050919050565b620001ed81620001ae565b8114620001f957600080fd5b50565b6110d4806200020c6000396000f3fe608060405234801561001057600080fd5b50600436106100935760003560e01c80638da5cb5b116100665780638da5cb5b146100fa578063a694fc3a14610118578063d4d5d32a14610134578063f0f442601461013e578063f2fde38b1461015a57610093565b80631df4ccfc146100985780632e1a7d4d146100b657806361d027b3146100d2578063715018a6146100f0575b600080fd5b6100a0610176565b6040516100ad9190610d59565b60405180910390f35b6100d060048036038101906100cb9190610b48565b61017c565b005b6100da6103cf565b6040516100e79190610c3e565b60405180910390f35b6100f86103f5565b005b61010261047d565b60405161010f9190610c3e565b60405180910390f35b610132600480360381019061012d9190610b48565b6104a6565b005b61013c610671565b005b61015860048036038101906101539190610af6565b6107c3565b005b610174600480360381019061016f9190610af6565b6108f3565b005b60055481565b600260003373ffffffffffffffffffffffffffffffffffffffff1673ffffffffffffffffffffffffffffffffffffffff168152602001908152602001600020548111156101fe576040517f08c379a00000000000000000000000000000000000000000000000000000000081526004016101f590610cf9565b60405180910390fd5b611c20600360003373ffffffffffffffffffffffffffffffffffffffff1673ffffffffffffffffffffffffffffffffffffffff168152602001908152602001600020544261024c9190610e66565b101561028d576040517f08c379a000000000000000000000000000000000000000000000000000000000815260040161028490610d19565b60405180910390fd5b80600260003373ffffffffffffffffffffffffffffffffffffffff1673ffffffffffffffffffffffffffffffffffffffff16815260200190815260200160002060008282546102dc9190610e66565b92505081905550600160009054906101000a900473ffffffffffffffffffffffffffffffffffffffff1673ffffffffffffffffffffffffffffffffffffffff1663a9059cbb33836040518363ffffffff1660e01b8152600401610340929190610c90565b602060405180830381600087803b15801561035a57600080fd5b505af115801561036e573d6000803e3d6000fd5b505050506040513d601f19601f820116820180604052508101906103929190610b1f565b507f5dba113b49cfa7c90315e8e604e6b506f7abcb909b01dcb19ec39005086e68fc33826040516103c4929190610c90565b60405180910390a150565b600460009054906101000a900473ffffffffffffffffffffffffffffffffffffffff1681565b6103fd6109eb565b73ffffffffffffffffffffffffffffffffffffffff1661041b61047d565b73ffffffffffffffffffffffffffffffffffffffff1614610471576040517f08c379a000000000000000000000000000000000000000000000000000000000815260040161046890610d39565b60405180910390fd5b61047b60006109f3565b565b60008060009054906101000a900473ffffffffffffffffffffffffffffffffffffffff16905090565b60006103e86002836104b89190610e0c565b6104c29190610ddb565b905080600560008282546104d69190610d85565b9250508190555042600360003373ffffffffffffffffffffffffffffffffffffffff1673ffffffffffffffffffffffffffffffffffffffff16815260200190815260200160002081905550808261052d9190610e66565b600260003373ffffffffffffffffffffffffffffffffffffffff1673ffffffffffffffffffffffffffffffffffffffff168152602001908152602001600020600082825461057b9190610d85565b92505081905550600160009054906101000a900473ffffffffffffffffffffffffffffffffffffffff1673ffffffffffffffffffffffffffffffffffffffff166323b872dd3330856040518463ffffffff1660e01b81526004016105e193929190610c59565b602060405180830381600087803b1580156105fb57600080fd5b505af115801561060f573d6000803e3d6000fd5b505050506040513d601f19601f820116820180604052508101906106339190610b1f565b507fb58845b0a64f92dd8d1ba04f905319d6be2021b57783b3d10155e7e36a84e1283383604051610665929190610c90565b60405180910390a15050565b6106796109eb565b73ffffffffffffffffffffffffffffffffffffffff1661069761047d565b73ffffffffffffffffffffffffffffffffffffffff16146106ed576040517f08c379a00000000000000000000000000000000000000000000000000000000081526004016106e490610d39565b60405180910390fd5b600160009054906101000a900473ffffffffffffffffffffffffffffffffffffffff1673ffffffffffffffffffffffffffffffffffffffff1663a9059cbb600460009054906101000a900473ffffffffffffffffffffffffffffffffffffffff166005546040518363ffffffff1660e01b815260040161076e929190610c90565b602060405180830381600087803b15801561078857600080fd5b505af115801561079c573d6000803e3d6000fd5b505050506040513d601f19601f820116820180604052508101906107c09190610b1f565b50565b6107cb6109eb565b73ffffffffffffffffffffffffffffffffffffffff166107e961047d565b73ffffffffffffffffffffffffffffffffffffffff161461083f576040517f08c379a000000000000000000000000000000000000000000000000000000000815260040161083690610d39565b60405180910390fd5b600073ffffffffffffffffffffffffffffffffffffffff168173ffffffffffffffffffffffffffffffffffffffff1614156108af576040517f08c379a00000000000000000000000000000000000000000000000000000000081526004016108a690610cd9565b60405180910390fd5b80600460006101000a81548173ffffffffffffffffffffffffffffffffffffffff021916908373ffffffffffffffffffffffffffffffffffffffff16021790555050565b6108fb6109eb565b73ffffffffffffffffffffffffffffffffffffffff1661091961047d565b73ffffffffffffffffffffffffffffffffffffffff161461096f576040517f08c379a000000000000000000000000000000000000000000000000000000000815260040161096690610d39565b60405180910390fd5b600073ffffffffffffffffffffffffffffffffffffffff168173ffffffffffffffffffffffffffffffffffffffff1614156109df576040517f08c379a00000000000000000000000000000000000000000000000000000000081526004016109d690610cb9565b60405180910390fd5b6109e8816109f3565b50565b600033905090565b60008060009054906101000a900473ffffffffffffffffffffffffffffffffffffffff169050816000806101000a81548173ffffffffffffffffffffffffffffffffffffffff021916908373ffffffffffffffffffffffffffffffffffffffff1602179055508173ffffffffffffffffffffffffffffffffffffffff168173ffffffffffffffffffffffffffffffffffffffff167f8be0079c531659141344cd1fd0a4f28419497f9722a3daafe3b4186f6b6457e060405160405180910390a35050565b600081359050610ac681611059565b92915050565b600081519050610adb81611070565b92915050565b600081359050610af081611087565b92915050565b600060208284031215610b0857600080fd5b6000610b1684828501610ab7565b91505092915050565b600060208284031215610b3157600080fd5b6000610b3f84828501610acc565b91505092915050565b600060208284031215610b5a57600080fd5b6000610b6884828501610ae1565b91505092915050565b610b7a81610e9a565b82525050565b6000610b8d602683610d74565b9150610b9882610f40565b604082019050919050565b6000610bb0602783610d74565b9150610bbb82610f8f565b604082019050919050565b6000610bd3601483610d74565b9150610bde82610fde565b602082019050919050565b6000610bf6601c83610d74565b9150610c0182611007565b602082019050919050565b6000610c19602083610d74565b9150610c2482611030565b602082019050919050565b610c3881610ed8565b82525050565b6000602082019050610c536000830184610b71565b92915050565b6000606082019050610c6e6000830186610b71565b610c7b6020830185610b71565b610c886040830184610c2f565b949350505050565b6000604082019050610ca56000830185610b71565b610cb26020830184610c2f565b9392505050565b60006020820190508181036000830152610cd281610b80565b9050919050565b60006020820190508181036000830152610cf281610ba3565b9050919050565b60006020820190508181036000830152610d1281610bc6565b9050919050565b60006020820190508181036000830152610d3281610be9565b9050919050565b60006020820190508181036000830152610d5281610c0c565b9050919050565b6000602082019050610d6e6000830184610c2f565b92915050565b600082825260208201905092915050565b6000610d9082610ed8565b9150610d9b83610ed8565b9250827fffffffffffffffffffffffffffffffffffffffffffffffffffffffffffffffff03821115610dd057610dcf610ee2565b5b828201905092915050565b6000610de682610ed8565b9150610df183610ed8565b925082610e0157610e00610f11565b5b828204905092915050565b6000610e1782610ed8565b9150610e2283610ed8565b9250817fffffffffffffffffffffffffffffffffffffffffffffffffffffffffffffffff0483118215151615610e5b57610e5a610ee2565b5b828202905092915050565b6000610e7182610ed8565b9150610e7c83610ed8565b925082821015610e8f57610e8e610ee2565b5b828203905092915050565b6000610ea582610eb8565b9050919050565b60008115159050919050565b600073ffffffffffffffffffffffffffffffffffffffff82169050919050565b6000819050919050565b7f4e487b7100000000000000000000000000000000000000000000000000000000600052601160045260246000fd5b7f4e487b7100000000000000000000000000000000000000000000000000000000600052601260045260246000fd5b7f4f776e61626c653a206e6577206f776e657220697320746865207a65726f206160008201527f6464726573730000000000000000000000000000000000000000000000000000602082015250565b7f547265617375727920616464726573732063616e6e6f74206265207a65726f2060008201527f6164647265737300000000000000000000000000000000000000000000000000602082015250565b7f496e73756666696369656e742062616c616e6365000000000000000000000000600082015250565b7f43616e6e6f7420756e6c6f636b206265666f7265203220686f75727300000000600082015250565b7f4f776e61626c653a2063616c6c6572206973206e6f7420746865206f776e6572600082015250565b61106281610e9a565b811461106d57600080fd5b50565b61107981610eac565b811461108457600080fd5b50565b61109081610ed8565b811461109b57600080fd5b5056fea2646970667358221220f6baeb308cddc75fc0a9c46e2c6fdf92d509d504fd5abab25198c765aed25b1264736f6c63430008040033",
  "linkReferences": {},
  "deployedLinkReferences": {}
}