{
  "_format": "hh-sol-artifact-1",
  "contractName": "Token",
  "sourceName": "contracts/Token.sol",
  "abi": [
    {
      "inputs": [],
      "stateMutability": "nonpayable",
      "type": "constructor"
    },
    {
      "anonymous": false,
      "inputs": [
        {
          "indexed": true,
          "internalType": "address",
          "name": "owner",
          "type": "address"
        },
        {
          "indexed": true,
          "internalType": "address",
          "name": "spender",
          "type": "address"
        },
        {
          "indexed": false,
          "internalType": "uint256",
          "name": "value",
          "type": "uint256"
        }
      ],
      "name": "Approval",
      "type": "event"
    },
    {
      "anonymous": false,
      "inputs": [
        {
          "indexed": true,
          "internalType": "address",
          "name": "previousOwner",
          "type": "address"
        },
        {
          "indexed": true,
          "internalType": "address",
          "name": "newOwner",
          "type": "address"
        }
      ],
      "name": "OwnershipTransferred",
      "type": "event"
    },
    {
      "anonymous": false,
      "inputs": [
        {
          "indexed": false,
          "internalType": "address",
          "name": "account",
          "type": "address"
        }
      ],
      "name": "Paused",
      "type": "event"
    },
    {
      "anonymous": false,
      "inputs": [
        {
          "indexed": true,
          "internalType": "address",
          "name": "from",
          "type": "address"
        },
        {
          "indexed": true,
          "internalType": "address",
          "name": "to",
          "type": "address"
        },
        {
          "indexed": false,
          "internalType": "uint256",
          "name": "value",
          "type": "uint256"
        }
      ],
      "name": "Transfer",
      "type": "event"
    },
    {
      "anonymous": false,
      "inputs": [
        {
          "indexed": false,
          "internalType": "address",
          "name": "account",
          "type": "address"
        }
      ],
      "name": "Unpaused",
      "type": "event"
    },
    {
      "inputs": [
        {
          "internalType": "address",
          "name": "owner",
          "type": "address"
        },
        {
          "internalType": "address",
          "name": "spender",
          "type": "address"
        }
      ],
      "name": "allowance",
      "outputs": [
        {
          "internalType": "uint256",
          "name": "",
          "type": "uint256"
        }
      ],
      "stateMutability": "view",
      "type": "function"
    },
    {
      "inputs": [
        {
          "internalType": "address",
          "name": "spender",
          "type": "address"
        },
        {
          "internalType": "uint256",
          "name": "amount",
          "type": "uint256"
        }
      ],
      "name": "approve",
      "outputs": [
        {
          "internalType": "bool",
          "name": "",
          "type": "bool"
        }
      ],
      "stateMutability": "nonpayable",
      "type": "function"
    },
    {
      "inputs": [
        {
          "internalType": "address",
          "name": "account",
          "type": "address"
        }
      ],
      "name": "balanceOf",
      "outputs": [
        {
          "internalType": "uint256",
          "name": "",
          "type": "uint256"
        }
      ],
      "stateMutability": "view",
      "type": "function"
    },
    {
      "inputs": [
        {
          "internalType": "bytes32",
          "name": "c__0x729eeda3",
          "type": "bytes32"
        }
      ],
      "name": "c_0x729eeda3",
      "outputs": [],
      "stateMutability": "pure",
      "type": "function"
    },
    {
      "inputs": [],
      "name": "decimals",
      "outputs": [
        {
          "internalType": "uint8",
          "name": "",
          "type": "uint8"
        }
      ],
      "stateMutability": "pure",
      "type": "function"
    },
    {
      "inputs": [
        {
          "internalType": "address",
          "name": "spender",
          "type": "address"
        },
        {
          "internalType": "uint256",
          "name": "subtractedValue",
          "type": "uint256"
        }
      ],
      "name": "decreaseAllowance",
      "outputs": [
        {
          "internalType": "bool",
          "name": "",
          "type": "bool"
        }
      ],
      "stateMutability": "nonpayable",
      "type": "function"
    },
    {
      "inputs": [
        {
          "internalType": "address",
          "name": "spender",
          "type": "address"
        },
        {
          "internalType": "uint256",
          "name": "addedValue",
          "type": "uint256"
        }
      ],
      "name": "increaseAllowance",
      "outputs": [
        {
          "internalType": "bool",
          "name": "",
          "type": "bool"
        }
      ],
      "stateMutability": "nonpayable",
      "type": "function"
    },
    {
      "inputs": [
        {
          "internalType": "address",
          "name": "to",
          "type": "address"
        },
        {
          "internalType": "uint256",
          "name": "amount",
          "type": "uint256"
        }
      ],
      "name": "mint",
      "outputs": [],
      "stateMutability": "nonpayable",
      "type": "function"
    },
    {
      "inputs": [],
      "name": "name",
      "outputs": [
        {
          "internalType": "string",
          "name": "",
          "type": "string"
        }
      ],
      "stateMutability": "view",
      "type": "function"
    },
    {
      "inputs": [],
      "name": "owner",
      "outputs": [
        {
          "internalType": "address",
          "name": "",
          "type": "address"
        }
      ],
      "stateMutability": "view",
      "type": "function"
    },
    {
      "inputs": [],
      "name": "pause",
      "outputs": [],
      "stateMutability": "nonpayable",
      "type": "function"
    },
    {
      "inputs": [],
      "name": "paused",
      "outputs": [
        {
          "internalType": "bool",
          "name": "",
          "type": "bool"
        }
      ],
      "stateMutability": "view",
      "type": "function"
    },
    {
      "inputs": [],
      "name": "renounceOwnership",
      "outputs": [],
      "stateMutability": "nonpayable",
      "type": "function"
    },
    {
      "inputs": [],
      "name": "symbol",
      "outputs": [
        {
          "internalType": "string",
          "name": "",
          "type": "string"
        }
      ],
      "stateMutability": "view",
      "type": "function"
    },
    {
      "inputs": [],
      "name": "totalSupply",
      "outputs": [
        {
          "internalType": "uint256",
          "name": "",
          "type": "uint256"
        }
      ],
      "stateMutability": "view",
      "type": "function"
    },
    {
      "inputs": [
        {
          "internalType": "address",
          "name": "recipient",
          "type": "address"
        },
        {
          "internalType": "uint256",
          "name": "amount",
          "type": "uint256"
        }
      ],
      "name": "transfer",
      "outputs": [
        {
          "internalType": "bool",
          "name": "",
          "type": "bool"
        }
      ],
      "stateMutability": "nonpayable",
      "type": "function"
    },
    {
      "inputs": [
        {
          "internalType": "address",
          "name": "sender",
          "type": "address"
        },
        {
          "internalType": "address",
          "name": "recipient",
          "type": "address"
        },
        {
          "internalType": "uint256",
          "name": "amount",
          "type": "uint256"
        }
      ],
      "name": "transferFrom",
      "outputs": [
        {
          "internalType": "bool",
          "name": "",
          "type": "bool"
        }
      ],
      "stateMutability": "nonpayable",
      "type": "function"
    },
    {
      "inputs": [
        {
          "internalType": "address",
          "name": "newOwner",
          "type": "address"
        }
      ],
      "name": "transferOwnership",
      "outputs": [],
      "stateMutability": "nonpayable",
      "type": "function"
    },
    {
      "inputs": [],
      "name": "unpause",
      "outputs": [],
      "stateMutability": "nonpayable",
      "type": "function"
    }
  ],
  "bytecode": "0x60806040523480156200001157600080fd5b506040518060400160405280600a81526020017f5553444320746f6b656e000000000000000000000000000000000000000000008152506040518060400160405280600581526020017f555344435400000000000000000000000000000000000000000000000000000081525081600390805190602001906200009692919062000555565b508060049080519060200190620000af92919062000555565b5050506000600560006101000a81548160ff021916908315150217905550620000ed620000e1620001b460201b60201c565b620001bc60201b60201c565b620001217fcaf7442399cc2da95539cb7209c663a7a90d29e34657d4932868d07e9f0bf7c960001b6200028260201b60201c565b620001557f7575ec9af9675b988572d26b0aea07e2a48bb4e47d0ff293b8fcbcb9b13a5e5a60001b6200028260201b60201c565b620001897f419455e2cd3250e8643ba2565b712097ee387e98d3407a2e9aacec27d782c82e60001b6200028260201b60201c565b620001ae6200019d6200028560201b60201c565b6305f5e100620002af60201b60201c565b62000823565b600033905090565b6000600560019054906101000a900473ffffffffffffffffffffffffffffffffffffffff16905081600560016101000a81548173ffffffffffffffffffffffffffffffffffffffff021916908373ffffffffffffffffffffffffffffffffffffffff1602179055508173ffffffffffffffffffffffffffffffffffffffff168173ffffffffffffffffffffffffffffffffffffffff167f8be0079c531659141344cd1fd0a4f28419497f9722a3daafe3b4186f6b6457e060405160405180910390a35050565b50565b6000600560019054906101000a900473ffffffffffffffffffffffffffffffffffffffff16905090565b600073ffffffffffffffffffffffffffffffffffffffff168273ffffffffffffffffffffffffffffffffffffffff16141562000322576040517f08c379a0000000000000000000000000000000000000000000000000000000008152600401620003199062000686565b60405180910390fd5b62000336600083836200042860201b60201c565b80600260008282546200034a9190620006d6565b92505081905550806000808473ffffffffffffffffffffffffffffffffffffffff1673ffffffffffffffffffffffffffffffffffffffff1681526020019081526020016000206000828254620003a19190620006d6565b925050819055508173ffffffffffffffffffffffffffffffffffffffff16600073ffffffffffffffffffffffffffffffffffffffff167fddf252ad1be2c89b69c2b068fc378daa952ba7f163c4a11628f55a4df523b3ef83604051620004089190620006a8565b60405180910390a362000424600083836200053460201b60201c565b5050565b620004386200053960201b60201c565b156200047b576040517f08c379a0000000000000000000000000000000000000000000000000000000008152600401620004729062000664565b60405180910390fd5b620004af7f0d324339df6db6bc6a48cfb3b1c3facecbda8e80be4e348ab918cca1a2f24f6b60001b6200028260201b60201c565b620004e37fb7b4245b84a7cf49a86566d05322bf65c4b86792095ccb860a00f01713078fb760001b6200028260201b60201c565b620005177f4bdde8f2038cfd3c81049fecbb39730b1bac5328e55708fe9bbc5e36998733ce60001b6200028260201b60201c565b6200052f8383836200055060201b62000dd71760201c565b505050565b505050565b6000600560009054906101000a900460ff16905090565b505050565b82805462000563906200073d565b90600052602060002090601f016020900481019282620005875760008555620005d3565b82601f10620005a257805160ff1916838001178555620005d3565b82800160010185558215620005d3579182015b82811115620005d2578251825591602001919060010190620005b5565b5b509050620005e29190620005e6565b5090565b5b8082111562000601576000816000905550600101620005e7565b5090565b600062000614601083620006c5565b91506200062182620007d1565b602082019050919050565b60006200063b601f83620006c5565b91506200064882620007fa565b602082019050919050565b6200065e8162000733565b82525050565b600060208201905081810360008301526200067f8162000605565b9050919050565b60006020820190508181036000830152620006a1816200062c565b9050919050565b6000602082019050620006bf600083018462000653565b92915050565b600082825260208201905092915050565b6000620006e38262000733565b9150620006f08362000733565b9250827fffffffffffffffffffffffffffffffffffffffffffffffffffffffffffffffff0382111562000728576200072762000773565b5b828201905092915050565b6000819050919050565b600060028204905060018216806200075657607f821691505b602082108114156200076d576200076c620007a2565b5b50919050565b7f4e487b7100000000000000000000000000000000000000000000000000000000600052601160045260246000fd5b7f4e487b7100000000000000000000000000000000000000000000000000000000600052602260045260246000fd5b7f5061757361626c653a2070617573656400000000000000000000000000000000600082015250565b7f45524332303a206d696e7420746f20746865207a65726f206164647265737300600082015250565b61213780620008336000396000f3fe608060405234801561001057600080fd5b50600436106101215760003560e01c806370a08231116100ad578063a457c2d711610071578063a457c2d7146102d4578063a9059cbb14610304578063cb918ad814610334578063dd62ed3e14610350578063f2fde38b1461038057610121565b806370a0823114610254578063715018a6146102845780638456cb591461028e5780638da5cb5b1461029857806395d89b41146102b657610121565b8063313ce567116100f4578063313ce567146101c257806339509351146101e05780633f4ba83a1461021057806340c10f191461021a5780635c975abb1461023657610121565b806306fdde0314610126578063095ea7b31461014457806318160ddd1461017457806323b872dd14610192575b600080fd5b61012e61039c565b60405161013b9190611a23565b60405180910390f35b61015e6004803603810190610159919061176f565b61042e565b60405161016b9190611a08565b60405180910390f35b61017c61044c565b6040516101899190611bc5565b60405180910390f35b6101ac60048036038101906101a79190611720565b610456565b6040516101b99190611a08565b60405180910390f35b6101ca61054e565b6040516101d79190611be0565b60405180910390f35b6101fa60048036038101906101f5919061176f565b6105db565b6040516102079190611a08565b60405180910390f35b610218610687565b005b610234600480360381019061022f919061176f565b610791565b005b61023e61089f565b60405161024b9190611a08565b60405180910390f35b61026e600480360381019061026991906116bb565b6108b6565b60405161027b9190611bc5565b60405180910390f35b61028c6108fe565b005b610296610986565b005b6102a0610a90565b6040516102ad91906119ed565b60405180910390f35b6102be610aba565b6040516102cb9190611a23565b60405180910390f35b6102ee60048036038101906102e9919061176f565b610b4c565b6040516102fb9190611a08565b60405180910390f35b61031e6004803603810190610319919061176f565b610c37565b60405161032b9190611a08565b60405180910390f35b61034e600480360381019061034991906117ab565b610c55565b005b61036a600480360381019061036591906116e4565b610c58565b6040516103779190611bc5565b60405180910390f35b61039a600480360381019061039591906116bb565b610cdf565b005b6060600380546103ab90611cff565b80601f01602080910402602001604051908101604052809291908181526020018280546103d790611cff565b80156104245780601f106103f957610100808354040283529160200191610424565b820191906000526020600020905b81548152906001019060200180831161040757829003601f168201915b5050505050905090565b600061044261043b610ddc565b8484610de4565b6001905092915050565b6000600254905090565b6000610463848484610faf565b6000600160008673ffffffffffffffffffffffffffffffffffffffff1673ffffffffffffffffffffffffffffffffffffffff16815260200190815260200160002060006104ae610ddc565b73ffffffffffffffffffffffffffffffffffffffff1673ffffffffffffffffffffffffffffffffffffffff1681526020019081526020016000205490508281101561052e576040517f08c379a000000000000000000000000000000000000000000000000000000000815260040161052590611b05565b60405180910390fd5b6105428561053a610ddc565b858403610de4565b60019150509392505050565b600061057c7f22d9b9ffbb21b5c0eaa99393dc2a2d0ce773246ee4fed9b1867b27844d4acbd860001b610c55565b6105a87f5f885c85c5b3a8c343b421b1555b28d60d0be08993d3ea685169bd37af72131060001b610c55565b6105d47f5874b1a1eea06bc1e97f272cbd371eac3220e0fbd5d8acbd833f327d9afc40d060001b610c55565b6005905090565b600061067d6105e8610ddc565b8484600160006105f6610ddc565b73ffffffffffffffffffffffffffffffffffffffff1673ffffffffffffffffffffffffffffffffffffffff16815260200190815260200160002060008873ffffffffffffffffffffffffffffffffffffffff1673ffffffffffffffffffffffffffffffffffffffff168152602001908152602001600020546106789190611c17565b610de4565b6001905092915050565b61068f610ddc565b73ffffffffffffffffffffffffffffffffffffffff166106ad610a90565b73ffffffffffffffffffffffffffffffffffffffff1614610703576040517f08c379a00000000000000000000000000000000000000000000000000000000081526004016106fa90611b25565b60405180910390fd5b61072f7f8082791da5b81c937d61761cd6be4f58d2596d9efc63492463b7683fa9c58ef560001b610c55565b61075b7f6972241eec69cc134a9117c69170e5c2096b4358d7aeddb4502ceee770da16ea60001b610c55565b6107877f480948eaf3a2b0f2f41bcb2aa6d1223cf3aaeae695dae4fc71c59f4775235cc460001b610c55565b61078f611230565b565b610799610ddc565b73ffffffffffffffffffffffffffffffffffffffff166107b7610a90565b73ffffffffffffffffffffffffffffffffffffffff161461080d576040517f08c379a000000000000000000000000000000000000000000000000000000000815260040161080490611b25565b60405180910390fd5b6108397f68d12643d0a2b2a17cb2504c1b55557634f701a0edcc5645b87aa7900da3a9d960001b610c55565b6108657f6f9fc469463f993264d0814fd210648f706618137ad6ebad3b3a69808724975760001b610c55565b6108917fbe5b9c1bc8c15f76555fd715d8a4685b83530164aaeb289341498d452a29e9fb60001b610c55565b61089b82826112d2565b5050565b6000600560009054906101000a900460ff16905090565b60008060008373ffffffffffffffffffffffffffffffffffffffff1673ffffffffffffffffffffffffffffffffffffffff168152602001908152602001600020549050919050565b610906610ddc565b73ffffffffffffffffffffffffffffffffffffffff16610924610a90565b73ffffffffffffffffffffffffffffffffffffffff161461097a576040517f08c379a000000000000000000000000000000000000000000000000000000000815260040161097190611b25565b60405180910390fd5b6109846000611432565b565b61098e610ddc565b73ffffffffffffffffffffffffffffffffffffffff166109ac610a90565b73ffffffffffffffffffffffffffffffffffffffff1614610a02576040517f08c379a00000000000000000000000000000000000000000000000000000000081526004016109f990611b25565b60405180910390fd5b610a2e7fc0d0e33f9335f87118455ece149b9590b188621015d755264874937b260bbdd160001b610c55565b610a5a7f2e1e32bf5206e3391a6af83f8ffe3acaa18857219efba0d006d842a4218f6a2560001b610c55565b610a867f190e53bdad2d3afd284d13043cfbe402b643c9ce14814f8df880c19ab5d238fb60001b610c55565b610a8e6114f8565b565b6000600560019054906101000a900473ffffffffffffffffffffffffffffffffffffffff16905090565b606060048054610ac990611cff565b80601f0160208091040260200160405190810160405280929190818152602001828054610af590611cff565b8015610b425780601f10610b1757610100808354040283529160200191610b42565b820191906000526020600020905b815481529060010190602001808311610b2557829003601f168201915b5050505050905090565b60008060016000610b5b610ddc565b73ffffffffffffffffffffffffffffffffffffffff1673ffffffffffffffffffffffffffffffffffffffff16815260200190815260200160002060008573ffffffffffffffffffffffffffffffffffffffff1673ffffffffffffffffffffffffffffffffffffffff16815260200190815260200160002054905082811015610c18576040517f08c379a0000000000000000000000000000000000000000000000000000000008152600401610c0f90611b85565b60405180910390fd5b610c2c610c23610ddc565b85858403610de4565b600191505092915050565b6000610c4b610c44610ddc565b8484610faf565b6001905092915050565b50565b6000600160008473ffffffffffffffffffffffffffffffffffffffff1673ffffffffffffffffffffffffffffffffffffffff16815260200190815260200160002060008373ffffffffffffffffffffffffffffffffffffffff1673ffffffffffffffffffffffffffffffffffffffff16815260200190815260200160002054905092915050565b610ce7610ddc565b73ffffffffffffffffffffffffffffffffffffffff16610d05610a90565b73ffffffffffffffffffffffffffffffffffffffff1614610d5b576040517f08c379a0000000000000000000000000000000000000000000000000000000008152600401610d5290611b25565b60405180910390fd5b600073ffffffffffffffffffffffffffffffffffffffff168173ffffffffffffffffffffffffffffffffffffffff161415610dcb576040517f08c379a0000000000000000000000000000000000000000000000000000000008152600401610dc290611a85565b60405180910390fd5b610dd481611432565b50565b505050565b600033905090565b600073ffffffffffffffffffffffffffffffffffffffff168373ffffffffffffffffffffffffffffffffffffffff161415610e54576040517f08c379a0000000000000000000000000000000000000000000000000000000008152600401610e4b90611b65565b60405180910390fd5b600073ffffffffffffffffffffffffffffffffffffffff168273ffffffffffffffffffffffffffffffffffffffff161415610ec4576040517f08c379a0000000000000000000000000000000000000000000000000000000008152600401610ebb90611aa5565b60405180910390fd5b80600160008573ffffffffffffffffffffffffffffffffffffffff1673ffffffffffffffffffffffffffffffffffffffff16815260200190815260200160002060008473ffffffffffffffffffffffffffffffffffffffff1673ffffffffffffffffffffffffffffffffffffffff168152602001908152602001600020819055508173ffffffffffffffffffffffffffffffffffffffff168373ffffffffffffffffffffffffffffffffffffffff167f8c5be1e5ebec7d5bd14f71427d1e84f3dd0314c0f7b2291e5b200ac8c7c3b92583604051610fa29190611bc5565b60405180910390a3505050565b600073ffffffffffffffffffffffffffffffffffffffff168373ffffffffffffffffffffffffffffffffffffffff16141561101f576040517f08c379a000000000000000000000000000000000000000000000000000000000815260040161101690611b45565b60405180910390fd5b600073ffffffffffffffffffffffffffffffffffffffff168273ffffffffffffffffffffffffffffffffffffffff16141561108f576040517f08c379a000000000000000000000000000000000000000000000000000000000815260040161108690611a45565b60405180910390fd5b61109a83838361159b565b60008060008573ffffffffffffffffffffffffffffffffffffffff1673ffffffffffffffffffffffffffffffffffffffff16815260200190815260200160002054905081811015611120576040517f08c379a000000000000000000000000000000000000000000000000000000000815260040161111790611ac5565b60405180910390fd5b8181036000808673ffffffffffffffffffffffffffffffffffffffff1673ffffffffffffffffffffffffffffffffffffffff16815260200190815260200160002081905550816000808573ffffffffffffffffffffffffffffffffffffffff1673ffffffffffffffffffffffffffffffffffffffff16815260200190815260200160002060008282546111b39190611c17565b925050819055508273ffffffffffffffffffffffffffffffffffffffff168473ffffffffffffffffffffffffffffffffffffffff167fddf252ad1be2c89b69c2b068fc378daa952ba7f163c4a11628f55a4df523b3ef846040516112179190611bc5565b60405180910390a361122a848484611677565b50505050565b61123861089f565b611277576040517f08c379a000000000000000000000000000000000000000000000000000000000815260040161126e90611a65565b60405180910390fd5b6000600560006101000a81548160ff0219169083151502179055507f5db9ee0a495bf2e6ff9c91a7834c1ba4fdd244a5e8aa4e537bd38aeae4b073aa6112bb610ddc565b6040516112c891906119ed565b60405180910390a1565b600073ffffffffffffffffffffffffffffffffffffffff168273ffffffffffffffffffffffffffffffffffffffff161415611342576040517f08c379a000000000000000000000000000000000000000000000000000000000815260040161133990611ba5565b60405180910390fd5b61134e6000838361159b565b80600260008282546113609190611c17565b92505081905550806000808473ffffffffffffffffffffffffffffffffffffffff1673ffffffffffffffffffffffffffffffffffffffff16815260200190815260200160002060008282546113b59190611c17565b925050819055508173ffffffffffffffffffffffffffffffffffffffff16600073ffffffffffffffffffffffffffffffffffffffff167fddf252ad1be2c89b69c2b068fc378daa952ba7f163c4a11628f55a4df523b3ef8360405161141a9190611bc5565b60405180910390a361142e60008383611677565b5050565b6000600560019054906101000a900473ffffffffffffffffffffffffffffffffffffffff16905081600560016101000a81548173ffffffffffffffffffffffffffffffffffffffff021916908373ffffffffffffffffffffffffffffffffffffffff1602179055508173ffffffffffffffffffffffffffffffffffffffff168173ffffffffffffffffffffffffffffffffffffffff167f8be0079c531659141344cd1fd0a4f28419497f9722a3daafe3b4186f6b6457e060405160405180910390a35050565b61150061089f565b15611540576040517f08c379a000000000000000000000000000000000000000000000000000000000815260040161153790611ae5565b60405180910390fd5b6001600560006101000a81548160ff0219169083151502179055507f62e78cea01bee320cd4e420270b5ea74000d11b0c9f74754ebdbfc544b05a258611584610ddc565b60405161159191906119ed565b60405180910390a1565b6115a361089f565b156115e3576040517f08c379a00000000000000000000000000000000000000000000000000000000081526004016115da90611ae5565b60405180910390fd5b61160f7f0d324339df6db6bc6a48cfb3b1c3facecbda8e80be4e348ab918cca1a2f24f6b60001b610c55565b61163b7fb7b4245b84a7cf49a86566d05322bf65c4b86792095ccb860a00f01713078fb760001b610c55565b6116677f4bdde8f2038cfd3c81049fecbb39730b1bac5328e55708fe9bbc5e36998733ce60001b610c55565b611672838383610dd7565b505050565b505050565b60008135905061168b816120bc565b92915050565b6000813590506116a0816120d3565b92915050565b6000813590506116b5816120ea565b92915050565b6000602082840312156116cd57600080fd5b60006116db8482850161167c565b91505092915050565b600080604083850312156116f757600080fd5b60006117058582860161167c565b92505060206117168582860161167c565b9150509250929050565b60008060006060848603121561173557600080fd5b60006117438682870161167c565b93505060206117548682870161167c565b9250506040611765868287016116a6565b9150509250925092565b6000806040838503121561178257600080fd5b60006117908582860161167c565b92505060206117a1858286016116a6565b9150509250929050565b6000602082840312156117bd57600080fd5b60006117cb84828501611691565b91505092915050565b6117dd81611c6d565b82525050565b6117ec81611c7f565b82525050565b60006117fd82611bfb565b6118078185611c06565b9350611817818560208601611ccc565b61182081611d8f565b840191505092915050565b6000611838602383611c06565b915061184382611da0565b604082019050919050565b600061185b601483611c06565b915061186682611def565b602082019050919050565b600061187e602683611c06565b915061188982611e18565b604082019050919050565b60006118a1602283611c06565b91506118ac82611e67565b604082019050919050565b60006118c4602683611c06565b91506118cf82611eb6565b604082019050919050565b60006118e7601083611c06565b91506118f282611f05565b602082019050919050565b600061190a602883611c06565b915061191582611f2e565b604082019050919050565b600061192d602083611c06565b915061193882611f7d565b602082019050919050565b6000611950602583611c06565b915061195b82611fa6565b604082019050919050565b6000611973602483611c06565b915061197e82611ff5565b604082019050919050565b6000611996602583611c06565b91506119a182612044565b604082019050919050565b60006119b9601f83611c06565b91506119c482612093565b602082019050919050565b6119d881611cb5565b82525050565b6119e781611cbf565b82525050565b6000602082019050611a0260008301846117d4565b92915050565b6000602082019050611a1d60008301846117e3565b92915050565b60006020820190508181036000830152611a3d81846117f2565b905092915050565b60006020820190508181036000830152611a5e8161182b565b9050919050565b60006020820190508181036000830152611a7e8161184e565b9050919050565b60006020820190508181036000830152611a9e81611871565b9050919050565b60006020820190508181036000830152611abe81611894565b9050919050565b60006020820190508181036000830152611ade816118b7565b9050919050565b60006020820190508181036000830152611afe816118da565b9050919050565b60006020820190508181036000830152611b1e816118fd565b9050919050565b60006020820190508181036000830152611b3e81611920565b9050919050565b60006020820190508181036000830152611b5e81611943565b9050919050565b60006020820190508181036000830152611b7e81611966565b9050919050565b60006020820190508181036000830152611b9e81611989565b9050919050565b60006020820190508181036000830152611bbe816119ac565b9050919050565b6000602082019050611bda60008301846119cf565b92915050565b6000602082019050611bf560008301846119de565b92915050565b600081519050919050565b600082825260208201905092915050565b6000611c2282611cb5565b9150611c2d83611cb5565b9250827fffffffffffffffffffffffffffffffffffffffffffffffffffffffffffffffff03821115611c6257611c61611d31565b5b828201905092915050565b6000611c7882611c95565b9050919050565b60008115159050919050565b6000819050919050565b600073ffffffffffffffffffffffffffffffffffffffff82169050919050565b6000819050919050565b600060ff82169050919050565b60005b83811015611cea578082015181840152602081019050611ccf565b83811115611cf9576000848401525b50505050565b60006002820490506001821680611d1757607f821691505b60208210811415611d2b57611d2a611d60565b5b50919050565b7f4e487b7100000000000000000000000000000000000000000000000000000000600052601160045260246000fd5b7f4e487b7100000000000000000000000000000000000000000000000000000000600052602260045260246000fd5b6000601f19601f8301169050919050565b7f45524332303a207472616e7366657220746f20746865207a65726f206164647260008201527f6573730000000000000000000000000000000000000000000000000000000000602082015250565b7f5061757361626c653a206e6f7420706175736564000000000000000000000000600082015250565b7f4f776e61626c653a206e6577206f776e657220697320746865207a65726f206160008201527f6464726573730000000000000000000000000000000000000000000000000000602082015250565b7f45524332303a20617070726f766520746f20746865207a65726f20616464726560008201527f7373000000000000000000000000000000000000000000000000000000000000602082015250565b7f45524332303a207472616e7366657220616d6f756e742065786365656473206260008201527f616c616e63650000000000000000000000000000000000000000000000000000602082015250565b7f5061757361626c653a2070617573656400000000000000000000000000000000600082015250565b7f45524332303a207472616e7366657220616d6f756e742065786365656473206160008201527f6c6c6f77616e6365000000000000000000000000000000000000000000000000602082015250565b7f4f776e61626c653a2063616c6c6572206973206e6f7420746865206f776e6572600082015250565b7f45524332303a207472616e736665722066726f6d20746865207a65726f20616460008201527f6472657373000000000000000000000000000000000000000000000000000000602082015250565b7f45524332303a20617070726f76652066726f6d20746865207a65726f2061646460008201527f7265737300000000000000000000000000000000000000000000000000000000602082015250565b7f45524332303a2064656372656173656420616c6c6f77616e63652062656c6f7760008201527f207a65726f000000000000000000000000000000000000000000000000000000602082015250565b7f45524332303a206d696e7420746f20746865207a65726f206164647265737300600082015250565b6120c581611c6d565b81146120d057600080fd5b50565b6120dc81611c8b565b81146120e757600080fd5b50565b6120f381611cb5565b81146120fe57600080fd5b5056fea264697066735822122088eef90b649f11b28e9f8a3f468351ae041b3f9b2c73ba349f911b2ffeb4514b64736f6c63430008040033",
  "linkReferences": {},
  "deployedLinkReferences": {}
}